:020000040800F2
:10000000083A00209D01000807100008B70E0008FC
:100010000510000859020008011500080000000042
:1000200000000000000000000000000005010008C2
:100030005B0200080000000049010008CD12000822
:10004000B7010008B7010008B7010008B7010008B0
:10005000B7010008B7010008B7010008B7010008A0
:10006000B7010008B7010008B7010008B701000890
:10007000B7010008B7010008B7010008B701000880
:10008000B7010008B7010008B7010008B701000870
:10009000B7010008B7010008B7010008B701000860
:1000A000B7010008B7010008B7010008B701000850
:1000B000B7010008B701000859130008B70100088C
:1000C000B7010008B7010008B7010008B701000830
:1000D000B7010008B7010008B7010008B701000820
:1000E000B7010008B7010008B7010008DFF810D019
:1000F00000F0A0F80048004735170008AFF3008073
:10010000083A0020224B19680868B0E8F00F80F325
:100110000988BFF36F8F4FF0000080F311884EF015
:100120000D0E70470000000006480068006880F36C
:10013000088862B661B6BFF34F8FBFF36F8F00DFE1
:1001400000BF00BF08ED00E0EFF30980BFF36F8F41
:100150000F4B1A6820E9F00F106008B54FF05000FF
:1001600080F31188BFF34F8FBFF36F8F02F00AFA4D
:100170004FF0000080F31188BDE808401968086856
:10018000B0E8F00F80F30988BFF36F8F704700BFAE
:1001900024000020EFF305807047000006488047E8
:1001A00006480047FEE7FEE7FEE7FEE7FEE7FEE75C
:1001B000FEE7FEE7FEE7FEE757130008ED00000844
:1001C00040EA01039B0703D009E008C9121F08C0D9
:1001D000042AFAD203E011F8013B00F8013B521E59
:1001E000F9D27047D2B201E000F8012B491EFBD2D0
:1001F00070470022F6E710B513460A460446194632
:10020000FFF7F0FF204610BD30B50B460146002039
:100210002022012409E021FA02F59D4205D303FAC8
:1002200002F5491B04FA02F52844151EA2F1010249
:10023000F1DC30BD064C074D06E0E06840F00103FC
:1002400094E8070098471034AC42F6D3FFF752FF0A
:100250001431000834310008FEE7704772B6FEE73B
:100260002DE9F84FDFF8B8910024A9F1040B2346DB
:100270000F2709F1040AABF1040EC9E00125A540DE
:100280002A40AA427DD1674ED1F804C0ACEB0608E3
:10029000B44532D014DCBCF1030F3AD009DCBCF118
:1002A000000F2AD0BCF1010F1CD0BCF1020F31D1DC
:1002B0001DE0BCF1110F17D0BCF1120F2AD119E0CB
:1002C000B8F5881F19D006DCB8F5803F15D0B8F511
:1002D000801F1FD111E0B8F5001F0ED0B8F5041F24
:1002E00018D10AE0CB6815E0CB681B1D12E0CB6883
:1002F00008330FE0CB680C330CE08B682BB1012B7B
:100300004FF0080303D0456104E0042302E00561D7
:1003100000E00023FF2A01D8064601E000F10406B0
:100320004FEA840501D9A5F12005D6F8008007FA27
:1003300005FC28EA0C0803FA05F548EA0508C6F8A2
:1003400000804D68ED0062D5374DAE6946F001067C
:10035000AE61AD6924F0030605F001050095334D4B
:1003600006EB050CDCF80850A607360F07FA06F86E
:1003700025EA0805DFF8B880404503D14FF00008B2
:1003800017E044E0DFF8AC80404502D14FF00108AF
:100390000FE0DFF8A480404502D14FF0020808E0EA
:1003A000DFF89880404502D14FF0030801E04FF09C
:1003B000040808FA06F848EA0508CCF808804D68F1
:1003C000D9F80060ED024D4601D5164300E0964392
:1003D0002E604D68DAF80060AD02554601D516432F
:1003E00000E096432E604D68DBF80060AD035D468B
:1003F00001D5164300E096432E604D68DEF800609C
:10040000ED03754601D5164300E096432E60641C4B
:100410000D682A46E5407FF431AFBDE8F88F000053
:1004200008040140000011100010024000000140CB
:1004300000080140000C0140001001400014014080
:100440008068084000D0012070470AB10161704700
:100450000904FBE701488068704700001400002091
:1004600002488168027811448160704714000020BE
:10047000074810B5016841F010010160032000F049
:10048000A7F80F2000F006F800F050F8002010BD8B
:100490000020024030B505461F4887B0C16941F0D1
:1004A0000401C161C06906A900F00400009001A820
:1004B00000F036F90498B0B100F052F94000174945
:1004C000174AB0FBF1F11748491E0260416040F243
:1004D000E7320021C0E903218160816100F018FB4F
:1004E000040003D015E000F03BF9E8E70D4800F008
:1004F0003DFB04000DD11E2000F03CF8102D07D26A
:10050000002229461E2000F043F80748056000E05D
:10051000012407B0204630BD0010024040420F00C9
:1005200000080040E8000020180000200F4808B52F
:10053000816941F001018161816901F0010100914E
:10054000C16941F08051C161C069002200F0805052
:1005500000900F21901E00F01BF80548416821F023
:10056000E06141F00071416008BD000000100240F0
:1005700000000140002809DB00F01F02012191402A
:100580004009800000F1E020C0F800117047000031
:10059000F0B40E4B1B680C46C3F30223C3F10705EE
:1005A000042D00D90425191D072901D2002300E0DC
:1005B000DB1E012606FA05F1491E214099409E40A6
:1005C000761E16403143F0BC00F0ACBF0CED00E0ED
:1005D000064900F0070208684FF6FF03184040EA9A
:1005E0000220034A10430860704700000CED00E051
:1005F0000000FA052DE9F0470F46050061D0434E93
:10060000306800F00700B84209D2306820F00700D7
:1006100038433060306800F00700B84251D1286894
:100620003B4C810712D5400703D5606840F4E06079
:1006300060602878000703D5606840F4605060600F
:100640006068A96820F0F000084360602878C0075F
:1006500028D06868012810D02168022810D08907A6
:1006600000292EDA616821F0030101436160FFF780
:10067000F1FE804641F288390DE021688903EFE7F9
:100680008901EDE7FFF7E6FEA0EB0801494502D935
:100690000320BDE8F0876068696800F00C00B0EBEB
:1006A000810FEFD1306800F00700B8420BD93068F5
:1006B00020F0070038433060306800F00700B8428F
:1006C00001D00120E5E72878400705D56068E96892
:1006D00020F4E060084360602878000706D5606871
:1006E000296920F4605040EAC100606000F058F8C9
:1006F0006168084AC1F30311515CC84006490860AB
:1007000006480068FFF7C6FE0020C2E7002002404E
:1007100000100240EE3000082000002018000020E9
:100720000F2202600C4A536803F0030343605368CE
:1007300003F0F0038360536803F4E063C36052681E
:100740004FF4E06303EAD20202610448006800F05B
:1007500007000860704700000010024000200240BF
:100760000448054900684968044AC1F30221515C04
:10077000C84070472000002000100240FE300008F2
:100780000448054900684968044AC1F3C221515C24
:10079000C84070472000002000100240FE300008D2
:1007A0000E4A51680E4801F00C03042B11D0082B9F
:1007B0000FD10C48C1F38343C903C05C0AD551680B
:1007C000084AC1F34041921E515C054A5043B0FBB8
:1007D000F1F07047044948437047000000100240A0
:1007E00000127A00DE30000800093D002DE9F84FC4
:1007F000040070D02078C04DC00749D06868C0F3AD
:100800008100012807D06868C0F38100022809D15F
:100810006868C00306D52868800339D56068002859
:10082000E7D035E06068B0F5803F0BD010B1B0F58F
:10083000A02F11D0286820F480302860286820F488
:10084000802002E0286840F480302860606890B121
:10085000FFF700FE06460AE0286840F48020286082
:10086000F0E700BFFFF7F6FD801B642873D8286807
:100870008003F7D50CE0FFF7EDFD064605E000BF6D
:10088000FFF7E8FD801B6428F0D828688003F7D4C0
:1008900020789A4E80074FF001094FF0000839D5B3
:1008A000686810F00C0F07D06868C0F38100022858
:1008B00009D16868C00306D42868800714D5206968
:1008C000012808D110E02069B0B1C6F80090FFF708
:1008D000C1FD074605E00AE1FFF7BCFDC01B022889
:1008E000C4D828688007F7D52868616920F0F80027
:1008F00040EAC10028600DE0C6F80080FFF7AAFDBD
:10090000074604E0FFF7A6FDC01B022823D828688D
:100910008007F7D4207800072CD57948A169D9B190
:10092000C0F80090FFF796FD074604E0FFF792FD40
:10093000C01B02280FD8686A8007F7D571484FF4AA
:10094000FA510068B0FBF1F0009000BF0098411E22
:100950000091FAD20EE080E0C0F80080FFF77AFD47
:10096000074604E0FFF776FDC01B022875D8686AC9
:100970008007F7D42078400760D5E8690027C000D9
:1009800008D4E86940F08050E861E869012700F088
:10099000805000905C480168C90513D40168834603
:1009A00041F480710160FFF755FD824606E000BF0B
:1009B000FFF750FDA0EB0A0064284ED8DBF80000DA
:1009C000C005F5D5E06801280AD008B1052813D084
:1009D000286A20F001002862286A20F0040002E062
:1009E000286A40F001002862E06841F2883B98B133
:1009F000FFF730FD82460BE0286A40F004002862D1
:100A0000EEE700BFFFF726FDA0EB0A0159455AD8D3
:100A1000286A8007F6D50CE0FFF71CFD824605E04A
:100A2000FFF718FDA0EB0A0159454CD8286A80074A
:100A3000F6D41FB1E86920F08050E861E06988B31E
:100A40006968C1F38101022944D00228C6F8608098
:100A500004D0FFF7FFFC044638E034E0FFF7FAFC6F
:100A6000074604E0FFF7F6FCC01B02282BD82868D5
:100A70008001F7D4206AB0F5803F05D16868A1688D
:100A800020F4003008436860D4E90801084369682D
:100A900021F4741108436860C6F86090FFF7DAFC2F
:100AA000044606E025E000BFFFF7D4FC001B022847
:100AB00009D828688001F7D51BE000BFFFF7CAFC02
:100AC000001B022802D90320BDE8F88F28688001A6
:100AD000F4D40EE00128F7D06868226A00F480316F
:100AE000914204D1616A00F47010884201D0012063
:100AF000EAE70020E8E70000001002400000424260
:100B0000800442422000002000700040704770477F
:100B100010B5040003D094F83D0010B107E00120A7
:100B200010BD002084F83C00204600F01EF8022092
:100B300084F83D00211D206800F014FC012084F899
:100B4000460084F83E0084F83F0084F8400084F8B2
:100B5000410084F8420084F8430084F8440084F89B
:100B6000450084F83D00002010BD704790F83D100E
:100B7000012901D001207047022180F83D10016851
:100B8000CA6842F00102CA6000680B49884208D076
:100B9000B0F1804F05D00949884202D00849884207
:100BA00004D1816801F00701062903D0016841F0F2
:100BB0000101016000207047002C0140000400404A
:100BC00000080040704770B50446006801694FF0A6
:100BD0000005C943890715D4C168C943890711D4E1
:100BE000E91E016101202077206880698007204686
:100BF00002D0FFF7E7FF04E000F098F8204600F08D
:100C000096F8257720680169C943490717D4C16858
:100C1000C943490713D46FF0040101610220207712
:100C20002068806910F4407F204602D0FFF7CAFF99
:100C300004E000F07BF8204600F079F82577206882
:100C40000169C943090716D4C168C943090712D409
:100C50006FF008010161042020772068C0698007D7
:100C6000204602D0FFF7AEFF04E000F05FF8204618
:100C700000F05DF8257720680169C943C90617D4DB
:100C8000C168C943C90613D46FF01001016108207F
:100C900020772068C06910F4407F204602D0FFF71B
:100CA00091FF04E000F042F8204600F040F825777C
:100CB00020680169C943C90708D1C168C943C90788
:100CC00004D1891E0161204600F032F820680169D4
:100CD000C943090609D4C168C943090605D46FF0A0
:100CE000800101612046FFF711FF20680169C943B7
:100CF000490609D4C168C943490605D46FF04001CB
:100D00000161204600F01EF820680169C943890688
:100D10000BD4C168C943890607D46FF02001016173
:100D20002046BDE87040FFF7F2BE70BD70477047C7
:100D300000680349884201D1FFF792BB7047000069
:100D400000080040704770B5040004D094F84100DA
:100D5000002510B106E0012070BD84F84050204607
:100D600000F024F8242084F841002068C16821F4B0
:100D70000051C160204600F02BFB2068016921F47E
:100D8000904101612068416921F02A014161206898
:100D9000C16841F40051C1606564202084F84100BD
:100DA00084F842006563002070BD000030B585B056
:100DB000002400940194029403940068144988422A
:100DC00024D11448816941F480418161816901F431
:100DD00080410491816941F00401816180690E4D77
:100DE00000F0040004904FF4007000900220019085
:100DF0000320039069462846FFF732FA2815CDE90B
:100E00000004694628460294FFF72AFA05B030BD6F
:100E10000038014000100240000801402DE9F8436D
:100E2000044690F841001F4616460D46202802D081
:100E30000220BDE8F8837DB176B1002060642120F6
:100E400084F84100FFF706FBA6848046E684A0688C
:100E5000B0F5805F02D003E00120EAE7206910B11D
:100E60002E4600250EE000260CE08021204600F0F2
:100E70000BFBA0B9AEB116F8010B21684860E08CFD
:100E8000401EE084E08C43464FF0000200970028AB
:100E9000EBD14FF04001204600F0F6FA30B10320CC
:100EA000C7E735F8020BC0F30800E6E7202084F816
:100EB00041000020BDE7FEE770B5164D002401217A
:100EC0002846FFF7BDFA01280CD10A2000F066FC85
:100ED00001212846FFF7B4FA0128F9D00A2000F0D2
:100EE0005DFC01244FF4806631462846FFF7A8FADE
:100EF00001280CD10A2000F051FC31462846FFF7AA
:100F00009FFA0128F9D00A2000F048FC022420466C
:100F100070BD0000000C014010B5044A00210448D7
:100F200000F092FC0349086010BD0000B8300008D2
:100F30003D1200081000002030B585B00024204884
:100F40000094019402940394816941F0100181613D
:100F5000816901F010010491816941F020018161F2
:100F6000816901F020010491816941F004018161EE
:100F7000816901F004010491816941F008018161F6
:100F80008069104D00F008000490012203212846DA
:100F9000FFF75BFA03210120CDE90010CDE9024102
:100FA00069462846FFF75CF940F20140CDE90004AC
:100FB0000220029069460448FFF752F905B030BD9F
:100FC0000010024000080140000C01400C4810B520
:100FD0000A4901604FF4E1314160002181600C2237
:100FE000C160C0E904128161C161FFF7ACFE002855
:100FF00003D0BDE81040FFF731B910BD0038014003
:10100000A0000020FEE7FEE708B5002041F288348A
:10101000451E009023466A462946002001F0C8FE7E
:10102000012806D007A000F06DFA142000F0B6FBEE
:10103000F0E70BA000F066FA15A0009900F062FA44
:10104000F3E70000726563315F7461736B20646164
:1010500074612072656365697665206661696C00FC
:10106000726563315F7461736B20646174612072B7
:1010700065636569766520737563636573732C7446
:1010800068652064617461206973203A0000000083
:1010900025640A0008B5002040F6B834451E0090CB
:1010A00023466A462946002001F082FE012806D028
:1010B00007A000F027FA142000F070FBF0E70BA067
:1010C00000F020FA15A0009900F01CFAF3E70000E8
:1010D000726563325F7461736B2064617461207246
:1010E000656365697665206661696C007265633267
:1010F0005F7461736B2064617461207265636569FC
:10110000766520737563636573732C7468652064FA
:10111000617461206973203A0000000025640A00B0
:101120006F26174CDE2500BFFFF7C6FE012802D050
:10113000022810D01EE013A11AA000F0E3F900234A
:1011400003223146606801F057FD012801D016A046
:101150000EE01CA00CE023A112A000F0D3F90023A4
:1011600003222946A06801F047FD012806D025A0EA
:1011700000F0C8F9142000F011FBD5E728A0F7E72C
:10118000000000206B65793120636C69636B2C7300
:10119000656E6420646174613120746F20746173C2
:1011A0006B310A0025730A00646174613120736534
:1011B0006E6420746F207461736B31206661696C9A
:1011C0000A00000064617461312073656E642074EC
:1011D0006F207461736B3120737563636573730A79
:1011E000000000006B65793220636C69636B2C73BF
:1011F000656E6420646174613220746F2074617361
:101200006B320A0064617461322073656E6420740D
:101210006F207461736B32206661696C000000009E
:1012200064617461322073656E6420746F20746130
:10123000736B32207375636365737300012000F074
:10124000ADFAFBE71CB500F0CDFF13480324CDE950
:1012500000400023802211A1134801F075FC0E48C4
:101260000023001FCDE90040802210A1124801F0A8
:101270006BFC09490420091DCDE9000100238022EF
:101280000EA1114801F060FC002001F0A5F8BDE8B6
:101290001C4000F0C7BF0000080000205265633208
:1012A0005F5461736B000000951000085265633154
:1012B0005F5461736B0000000910000853656E6491
:1012C0005F5461736B0000002111000810B55020BD
:1012D00080F31188BFF34F8FBFF36F8F01F004FDD0
:1012E00018B104494FF080500860002080F3118845
:1012F00010BD000004ED00E030B58FB02821684635
:10130000FEF777FF14210AA8FEF773FF01210804F6
:10131000CDE900100024029402250491CDE9075084
:101320004FF4E01009906846FFF760FA08B172B612
:10133000FEE70F20CDE90A054FF48060CDE90C40AF
:1013400002210AA80E94FFF755F9002801D072B6C1
:10135000FEE70FB030BD70470148FFF734BC000016
:10136000E8000020F0B50268164B174C174D4FF0FF
:101370008047984205D0B84203D0A04201D0A8428D
:1013800003D122F070064A683243984205D0B84231
:1013900003D0A04201D0A84203D122F44074CA680D
:1013A00022434C6922F08002224302608A68C262B2
:1013B0000A688262984201D1096901630121416191
:1013C000F0BD0000002C0140000400400008004077
:1013D00070B5044600680169E26821F44051114388
:1013E00001612169A0680843616908432168CA68EE
:1013F00041F20C639A430243CA6020684169A269C2
:1014000021F44071114341611E492068884202D194
:10141000FFF7B6F901E0FFF7A3F900EBC00101EB1C
:101420000012606864218000B2FBF0F3B3FBF1F3BB
:101430006FF018067343B2FBF0F5B2FBF0F605EB64
:101440008305322303EB0515B5FBF1F5B6FBF1F689
:1014500005F0F00505EB0615B2FBF0F6B2FBF0F077
:10146000B0FBF1F06FF01802504306EB800003EB85
:101470000010B0FBF1F0216800F00F0028448860F4
:1014800070BD0000003801402DE9F0419846174634
:101490000E460446069D27E0681C25D02DB1FEF7B8
:1014A000D9FFA0EB0800A8421ED920680C3050E8F4
:1014B000001F21F4D07140E80012002AF5D1206805
:1014C000143050E8001F21F0010140E80012002A0A
:1014D000F5D1202084F8410084F84200002084F8EF
:1014E00040000320BDE8F0812068006836EA000073
:1014F00004D00020B842CFD00020F3E70120F9E764
:10150000FEE700000FB4054B10B503A9044A02988A
:1015100000F028F810BC5DF814FB00001D1700084F
:101520009C0000200907090E002804DB00F1E020E0
:1015300080F80014704700F00F0000F1E02080F800
:10154000141D704702E008C8121F08C1002AFAD112
:1015500070477047002001E001C1121F002AFBD133
:10156000704700002DE9FF4F8BB09A460F460546A5
:10157000002606E025280BD052460D9990476D1C99
:10158000761C28780028F5D10FB03046BDE8F08FE2
:101590000024A0460122604900E0044315F8013F01
:1015A000203B02FA03F00842F7D128782E2817D101
:1015B00015F8010F44F004042A280ED06FF02F0212
:1015C0002878A0F1300109290AD808EB880102EB3C
:1015D000410100EB01086D1CF2E757F8048B6D1C0C
:1015E000287869283ED006DC0028CDD063280BD0AF
:1015F000642804D136E0732810D075284BD05246A9
:101600000D999047761C85E017F8040B8DF80000C3
:1016100000208DF80100E946012003E057F8049B03
:101620004FF0FF3061074FF0000401D40AE0641C62
:1016300044450DDA8442FADB19F804100029F6D18A
:1016400006E0641C8442FCDB19F804100029F8D180
:10165000264404E019F8010B52460D999047641E88
:10166000F8D257E001CF4FF00A0B002802DA4042CF
:101670002D2102E0210504D52B218DF82410012114
:1016800003E0E10705D02021F7E70DF120090891DB
:101690000CE00021F9E701CF4FF00A0BF9E75946BA
:1016A000FEF7B2FD01F1300209F8012D0028F6D154
:1016B000ADEB090000F1200B600701D44FF00108E9
:1016C000D84502DDA8EB0B0000E000208046002496
:1016D00006E009A85246005D0D999047641C761CEF
:1016E00008988442F5DB04E0302052460D9990477B
:1016F000761CB8F10001A8F10108F5DC05E019F845
:10170000010B52460D999047761CBBF10001ABF1DD
:10171000010BF4DC6D1C34E70928010013B54FF010
:10172000FF33012269460248FFF778FB00981CBD91
:10173000A00000201CB5FEF79BFEFFF7DDFDFFF7C4
:10174000FBFBFFF743FC0BA0FFF7DCFE0E4901207B
:10175000CDE90001002380220CA10F4801F0F4F92B
:1017600000F0C4FE00F034F8FFF7D6FB00F04CF8B0
:10177000FEE70000757361727420696E69742073EE
:101780007563636573730000000000205374617219
:10179000745F5461736B00004512000810B5EFF3DD
:1017A000058149B9EFF3108131B908490968022967
:1017B00005D1EFF3118111B16FF0050403E00024AE
:1017C00008B100F0E3FD204610BD000074000020C9
:1017D000EFF3058058B9EFF3108040B90949086864
:1017E000022801D030B109E0EFF3118030B16FF081
:1017F0000500704701200860002070474FF0FF305F
:10180000704700007400002010B5EFF3058060B948
:10181000EFF3108048B90B490868022802D001286C
:1018200006D00BE0EFF3118040B16FF0050010BD62
:101830000220086000F05AFE002010BD4FF0FF307B
:1018400010BD000074000020F0B585B04FEA010320
:101850004FF00004EFF305810394A1BBEFF3108177
:1018600089BB21490968022902D1EFF3118151BBDB
:1018700048B3802618218DF8104004AD42B3176894
:1018800007B13D4697691FB139467F1E382F02D2F6
:101890001779FF0702D0002005B0F0BD576907B1E6
:1018A000BE08D2F808C0BCF1000F0DD0D4685C2C83
:1018B00018D312693AB137B18DE80610324629467D
:1018C00001F06FF903900DE0D7685FB912694AB96A
:1018D00003AACDE90012B2B2294601F035F9012878
:1018E00000D003940398D7E7740000202DE9F0415D
:1018F000134C0F46054666692068001D00F016FC73
:10190000681C07D137B12168BDE8F0410D48091DB9
:1019100000F05CBC20683544B5424560216805D2C2
:10192000A068BDE8F041091D00F038BC6068091DE1
:1019300000F034FC206B854200D22563BDE8F081C5
:1019400024000020200600202DE9F041054600F08B
:1019500049FC2D4C2069401C206120682B4F10B1A0
:10196000E06930B32BE025602069012827D10026EB
:1019700006EB860007EB800000F002FC761C382E98
:10198000F6D3234800F0FCFB2148143000F0F8FBAC
:101990001F48283000F0F4FB1D483C3000F0F0FBFD
:1019A0001B48503000F0ECFB194860601430A06018
:1019B00005E02068E96AC06A884200D82560E06ACC
:1019C000401CE0626864E86AA169884200D9A061AD
:1019D00000EB800007EB8000291D00F0F7FB00F012
:1019E00021FCE06900280CD02068E96AC06A8842BE
:1019F00007D208494FF080500860BFF34F8FBFF304
:101A00006F8FBDE8F08100002400002070010020ED
:101A1000D005002004ED00E038B500F0E3FB104CE9
:101A2000A068C8B90F4800F0ABFB0E48143000F0B6
:101A3000A7FB0C482060143060600A4B002028335C
:101A4000009003F1500210210A2000F021FEA06056
:101A500010B105A100F064FCBDE8384000F0E2BB25
:101A60006000002034060020546D72510000000018
:101A700030B4026C0B46002A0BD0C1681144C1601F
:101A80004468A14201D30168C16030BC1846FEF72A
:101A900097BB30BC70472DE9F041856B1746044673
:101AA0000026026C82B1C7B1E068FEF789FBE168ED
:101AB000206C091AE1602268914202D26168081A1A
:101AC000E060022F16D017E02068A8B9606801F026
:101AD000B5F90646002060600EE0A068FEF770FBD6
:101AE000216CA0680844A0606168884204D3206823
:101AF000A06001E005B16D1E6D1CA5633046BDE818
:101B0000F08110B5044690F8590058B101280CD066
:101B100002280FD0502080F31188BFF34F8FBFF3FE
:101B20006F8FFEE7206B00F091FB2046BDE8104070
:101B300000F08CBB10BD000010484FF4205142074C
:101B400006D0C01D0D4920F00700411AC1F52051F3
:101B50000B4A00230144C2E900030839103A21F07E
:101B6000070111604B600B600B1AC0E90013936012
:101B70004FF000405360D06070470000040E00201A
:101B800088000020144E154CA6F29C474FF0805858
:101B9000DFF84C9012E000BF00F024FBF068C5684D
:101BA000281D00F0C3FA2069401E2061E068401E35
:101BB000E06000F037FB2846FFF7A3FFE06800284D
:101BC000EAD138680128F9D9C9F80080BFF34F8FEE
:101BD000BFF36F8FF2E700000C0600202400002006
:101BE00004ED00E070B51D46049C51B1C4F800201E
:101BF000C4E90F010121204600F07EFD84F84C501D
:101C000070BD2460F4E72DE9F0470E46DDE9098454
:101C10001746824691009946089DA522206BFEF743
:101C2000E1FA6FF00301206B01EB8701084420F01B
:101C30000707780707D0502080F31188BFF34F8F34
:101C4000BFF36F8FFEE72218315C82F83410315CED
:101C500011B1401C1028F6D3002684F84360382DBB
:101C600000D33725E562C4E91356201D00F093FA2E
:101C700004F1180000F08FFA2461C5F138006462A5
:101C8000A061666584F858604A465146384600F0BF
:101C90003BFA2060B8F1000F01D0C8F80040BDE861
:101CA000F087000030B5114900E011460A68824211
:101CB000FBD34B685C18844203D1406818444860E9
:101CC000084643681C18944209D1084C103C24680B
:101CD000A24209D052681A4442600A68126802603F
:101CE000814200D0086030BD0460F9E78800002020
:101CF00070B5002441600B4D0061914206D8D11AA5
:101D00008269914206D2011D686807E09A4203D2B7
:101D1000994201D3012403E0011D286800F03EFA36
:101D2000204670BD6000002010B5044600F05AFA4D
:101D3000A06B28B15FF0000400F074FA204610BDDB
:101D40000124F9E730B589B0304D55E004980028FA
:101D500006DADDE90601059A9047049800284BDB76
:101D6000069C606910B1201D00F0E0F902A800F0A7
:101D7000B9F8024604980A283ED2DFE800F00505CB
:101D8000053D263705053D260598A1690346014412
:101D90002046FFF7ADFF00B3616A20468847E0693F
:101DA000012829D1002000900598A169002342183C
:101DB0001946204601F04CF978B9502080F311887B
:101DC000BFF34F8FBFF36F8FFEE70598A06128B177
:101DD000811813462046FFF78BFF0DE0502080F35B
:101DE0001188BFF34F8FBFF36F8FFEE794F82C007D
:101DF00010B9204600F02AFA002204A9A86800F0D1
:101E0000CDFD0028A2D109B030BD00006000002047
:101E10002DE9FC410F46054600F0ACFB01A800F09F
:101E200061F80446019818B101F080F8BDE8FC8122
:101E3000224EAFB170680068A8B30027291B3A464C
:101E4000B06800F081FA01F071F80028EED11C4969
:101E50004FF080500860BFF34F8FBFF36F8FE5E7FF
:101E6000A542EBD801F062F830682746C068C46824
:101E7000201D00F05BF9E069012810D1A0692B4614
:101E800041193A462046FFF733FF40B10020034690
:101E9000014600902A46204601F0DAF820B1616A36
:101EA00020468847C2E707E0502080F31188BFF33F
:101EB0004F8FBFF36F8FFEE70127BFE76000002061
:101EC00004ED00E006484168096829B14168C96825
:101ED000C9684968016370474FF0FF31FAE70000B5
:101EE0002400002070B5054600F0F8FE064E0446BA
:101EF0003069844203D200F009F8012000E000209C
:101F000028602046346170BD60000020F8B5194D8E
:101F10001FE0C068C4680668201D00F007F9616A08
:101F200020468847E069012813D1A0693044B042B7
:101F300006D924616060211D286800F02FF908E0AF
:101F400000200346014600903246204601F080F80A
:101F500038B1286801680029DBD16968C5E900103B
:101F6000F8BD502080F31188BFF34F8FBFF36F8F00
:101F7000FEE700006000002008484068401C4FF069
:101F8000500080F3118804D0BFF34F8FBFF36F8FE1
:101F9000FEE7BFF34F8FBFF36F8FFEE79000002087
:101FA000074C2068016841B1C0680021D0F80000EA
:101FB000FFF72EFFFFF7C6FEF3E701210020F7E74A
:101FC000600000202DE9F041044600F00BF994F97F
:101FD000455004F1240609E0606A48B1304600F03B
:101FE0006DFF08B100F048FA6D1E6DB2002DF3DCF4
:101FF0004FF0FF3684F8456000F014F900F0F2F875
:1020000094F9445004F1100709E0206948B13846BA
:1020100000F054FF08B100F02FFA6D1E6DB2002DD4
:10202000F3DC84F84460BDE8F04100F0FBB8000048
:102030002DE9F0410546002700F09CFA314E30684A
:1020400008B9FFF779FDF06805424BD1C5B30835F3
:1020500068070ED005F00700C0F1080005446807C6
:1020600007D0502080F31188BFF34F8FBFF36F8FDD
:10207000FEE72DB37068854234D8224810300146FF
:102080000C6801E020460C466168A94202D2216832
:102090000029F7D131688C4224D00768216801609B
:1020A00060680837411B10290FD96019420708D012
:1020B000502080F31188BFF34F8FBFF36F8FFEE77F
:1020C00010E041606560FFF7EDFD61687068401ADF
:1020D0007060B268904200D2B060F06801430020A6
:1020E000C4E9000100F022FF780707D0502080F3F8
:1020F0001188BFF34F8FBFF36F8FFEE73846BDE8FF
:10210000F08100007800002010B5031F4FF08074AC
:102110001C601B1F21F001011960191F024B0B608D
:10212000143940380A6010BD791F0008D0E9013227
:1021300001699A60D0E901235A604A68824201D15C
:1021400082684A60002202610868401E08600868D0
:1021500070470000034B036003F15C0008608020BF
:10216000106070474C070020044B036003F15C00D3
:1021700008604FF48070106070470000A8090020CC
:1021800000F108014FF0FF32C0E90112C1600161A6
:1021900000210160704700210161704730B50B6874
:1021A0005A1C02D000F1080202E0026904E0224653
:1021B000546825689D42FAD953684B6099608A60DB
:1021C000516008610168491C016030BD42684A6085
:1021D00093688B6093685960916008610168491C3D
:1021E00001607047502080F31188BFF34F8FBFF319
:1021F0006F8F0A494868401C486001280CD1084884
:10220000006810F0FF0F07D0502080F31188BFF353
:102210004F8FBFF36F8FFEE77047000090000020E4
:1022200004ED00E00849486828B1401E486001D12B
:1022300080F311887047502080F31188BFF34F8FCF
:10224000BFF36F8FFEE700009000002070B50028FC
:1022500027D0144DA0F108046168E868014207D155
:10226000502080F31188BFF34F8FBFF36F8FFEE7CD
:1022700022683AB1502080F31188BFF34F8FBFF32B
:102280006F8FFEE78143616000F074F960686968F0
:10229000084468602046FFF705FDBDE8704000F087
:1022A00045BE70BD780000204FF0E02000210161A4
:1022B000816105494FF47A720968B1FBF2F1491E58
:1022C00041610721016170472000002010B5FDF732
:1022D00061FF114910280ED300F1E02090F8F003BF
:1022E0000A78904207D2502080F31188BFF34F8FB5
:1022F000BFF36F8FFEE709480068896800F4E0606B
:10230000884207D9502080F31188BFF34F8FBFF365
:102310006F8FFEE710BD0000900000200CED00E084
:1023200010B5084B002200BF53F832401CB1521CBC
:10233000082AF9D310BD43F8321003EBC2014860FC
:1023400010BD00003001002070B515460E46044651
:10235000FFF748FF94F944100020491C01D184F88C
:10236000440094F94510491C01D184F84500FFF759
:1023700059FFA06B28B92A46314604F1240000F029
:1023800099F82046BDE87040FFF71CBE10B502006A
:1023900014D00F48806B38B1502080F31188BFF300
:1023A0004F8FBFF36F8FFEE700F0E4F80021104677
:1023B000FFF79CFA00F0BAFD002807D105494FF05D
:1023C00080500860BFF34F8FBFF36F8F10BD0000C8
:1023D0002400002004ED00E070B50546FFF702FF81
:1023E0001E4C05B92568281DFFF7A0FEA86A18B184
:1023F00005F11800FFF79AFEE06A401CE0622068D1
:10240000854207D1291D1648FFF7E0FEE068401C11
:10241000E06007E02069401E20612846FFF771FB5D
:10242000FFF750FDFFF7FEFEE069002814D020689A
:10243000854211D1A06B38B1502080F31188BFF3D1
:102440004F8FBFF36F8FFEE706494FF08050086053
:10245000BFF34F8FBFF36F8F70BD000024000020CB
:102460000C06002004ED00E002498A6A0260496916
:1024700041607047240000200149012048627047F4
:102480002400002010B50C4650B1094909681831E4
:10249000FFF784FE2046BDE810400121FFF726BA71
:1024A000502080F31188BFF34F8FBFF36F8FFEE78B
:1024B0002400002070B514460D4668B10A49096829
:1024C0001831FFF783FE0CB14FF0FF352146284647
:1024D000BDE87040FFF70ABA502080F31188BFF3BF
:1024E0004F8FBFF36F8FFEE72400002030B587B019
:1024F0000024039405AA04A903A80494FFF72AFE64
:10250000DDE903010094CDE90110002315A117486E
:10251000059A00F046FB164D002868631FD000F0B6
:1025200067FD012809D0401C19D1502080F3118883
:10253000BFF34F8FBFF36F8FFEE7502080F31188FA
:10254000BFF34F8FBFF36F8F4FF0FF302863012031
:10255000E8616C6107B0BDE8304000F045B807B0F5
:1025600030BD000049444C4500000000851B0008B8
:10257000240000200248816B491C816370470000E1
:1025800024000020164810B5816B11B10121416271
:1025900010BD002141628169124A01E0B9B1491EB2
:1025A00001EB810352F82330002BF7D001EB8103BC
:1025B00002EB830202F1080453685B685360A34294
:1025C00001D15B685360DA680260816110BD502000
:1025D00080F31188BFF34F8FBFF36F8FFEE70000CA
:1025E00024000020700100201CB5264908780190C5
:1025F000FF20087008788DF800009DF800009DF815
:10260000002000F0F000904207D0502080F31188A5
:10261000BFF34F8FBFF36F8FFEE79DF800001A4B9B
:1026200000F0500018700720986005E09DF8002029
:1026300052008DF80020401E9DF800201206F5D4AF
:102640009860032807D0502080F31188BFF34F8F84
:10265000BFF36F8FFEE74FF44070986001980870E9
:102660000A48016841F470010160016841F070415D
:102670000160FFF719FE00205860FDF755FD0020AE
:102680001CBD000000E400E09000002020ED00E010
:1026900038B5049D18B153B1CAB181B120E05020C2
:1026A00080F31188BFF34F8FBFF36F8FFEE7502089
:1026B00080F31188BFF34F8FBFF36F8FFEE7502079
:1026C00080F31188BFF34F8FBFF36F8FFEE739B1EF
:1026D000502080F31188BFF34F8FBFF36F8FFEE759
:1026E00050241C46012384F846302B460094FFF703
:1026F00079FA204638BD000070B50D46040025D09B
:10270000FFF770FDD4E90F20216802FB0011616022
:102710000021A1632168A1600A46D4E90F01401E8F
:1027200000FB0121E16021464FF0FF3001F8440F2A
:10273000487004F110008DB1FFF722FD04F1240070
:10274000FFF71EFDFFF76EFD012070BD502080F3E6
:102750001188BFF34F8FBFF36F8FFEE72169002908
:10276000F0D000F0ABFB0028ECD004494FF08050D3
:102770000860BFF34F8FBFF36F8FE3E704ED00E016
:102780002DE9FF4782B01D468A464FF0000804003D
:1027900003D0BAF1000F08D011E0502080F3118867
:1027A000BFF34F8FBFF36F8FFEE7206C38B150201F
:1027B00080F31188BFF34F8FBFF36F8FFEE7022DB9
:1027C0000AD1E06B012807D0502080F31188BFF3B5
:1027D0004F8FBFF36F8FFEE700F072FA3F4F4FF05D
:1027E00000094FF0805648B9049838B1502080F362
:1027F0001188BFF34F8FBFF36F8FFEE7FFF7F2FC37
:10280000A06BE16B884207D3022D05D00498D0B1AC
:10281000B8F1000F1AD01EE02A4651462046FFF7B5
:102820003AF9616A19B104F1240000F047FB20B1C4
:102830003E60BFF34F8FBFF36F8FFFF7F3FC0120B4
:1028400006B0BDE8F087FFF7EDFC22E06846FFF731
:102850000BFE4FF00108FFF7E5FCFFF78BFEFFF7DB
:10286000C1FC94F94400401C01D184F8449094F9CF
:102870004500401C01D184F84590FFF7D3FC04A922
:10288000684600F027F930B12046FFF79BFB00F0C7
:102890004DFB0020D4E7FFF7A5FCA06BE16B88425D
:1028A00013D1FFF7BFFC04F110000499FFF7EAFD14
:1028B0002046FFF787FB00F039FB00289ED13E60E1
:1028C000BFF34F8FBFF36F8F98E7FFF7ABFC204646
:1028D000FFF778FB00F02AFB90E7000004ED00E032
:1028E0002DE9F0471F4690468946040003D0B9F110
:1028F000000F08D011E0502080F31188BFF34F8FF4
:10290000BFF36F8FFEE7206C38B1502080F3118841
:10291000BFF34F8FBFF36F8FFEE7022F0AD1E06B3B
:10292000012807D0502080F31188BFF34F8FBFF3E9
:102930006F8FFEE7FFF7CAFC5020EFF3118680F39C
:102940001188BFF34F8FBFF36F8FA06BE16B88428D
:1029500006D3022F04D0002086F31188BDE8F0874B
:1029600094F945503A4649462046FFF794F8681CCA
:1029700004D06D1C84F845500120EDE7606A002802
:10298000FAD004F1240000F099FA0028F4D0B8F14C
:10299000000FF1D00121C8F80010EDE72DE9F7474D
:1029A000002683B08A46040003D0BAF1000F08D095
:1029B00011E0502080F31188BFF34F8FBFF36F8F6A
:1029C000FEE7206C38B1502080F31188BFF34F8FA1
:1029D000BFF36F8FFEE700F073F9DFF8F4804FF07C
:1029E00000094FF0805748B9059838B1502080F35E
:1029F0001188BFF34F8FBFF36F8FFEE7FFF7F2FB36
:102A0000A56BC5B151462046FFF732F86D1EA56390
:102A1000206950B104F1100000F050FA28B1C8F854
:102A20000070BFF34F8FBFF36F8FFFF7FBFB0120E9
:102A300006B0BDE8F087059808B11EB106E0FFF7C3
:102A4000F1FB27E06846FFF70FFD0126FFF7EAFBE1
:102A5000FFF790FDFFF7C6FB94F94400401C01D13D
:102A600084F8449094F94500401C01D184F84590C5
:102A7000FFF7D8FB05A9684600F02CF8002820468F
:102A80000AD0FFF79FFA00F051FA2046FFF74CF901
:102A90000028B3D00020CBE7FFF746F990B104F14E
:102AA00024000599FFF7EEFC2046FFF78BFA00F0B3
:102AB0003DFA0028A2D1C8F80070BFF34F8FBFF3D2
:102AC0006F8F9BE72046FFF77DFA00F02FFA95E71E
:102AD00004ED00E02DE9F0410C46050011D0C4B131
:102AE000FFF780FB174B5A696E682068911B471CE3
:102AF00017D02F689B6A9F4219D0964217D801249D
:102B000010E0502080F31188BFF34F8FBFF36F8F19
:102B1000FEE7502080F31188BFF34F8FBFF36F8F14
:102B2000FEE70024FFF77EFB2046BDE8F0818842E7
:102B300005D9401A20602846FFF796FCF1E70020EF
:102B40002060DCE7240000202DE9FF5F8346DDE9FB
:102B50000E87994616468A469000FFF769FA0500E7
:102B60001CD05C20FFF764FA040014D00020256319
:102B700084F85900CDE90240CDE900874B46324642
:102B800051465846FFF73FF82046FEF7DDFE01208C
:102B900004B0BDE8F09F2846FFF758FB4FF0FF3028
:102BA000F6E7F0B585B0DDE90B640A9DA6B1DCB1AE
:102BB0005C2700972663022684F85960002604AF3C
:102BC000CDE90246CDE90057FFF71DF82046FEF794
:102BD000BBFE049805B0F0BD502080F31188BFF310
:102BE0004F8FBFF36F8FFEE7502080F31188BFF344
:102BF0004F8FBFF36F8FFEE72DE9F0411F469046E0
:102C00000D46012690B10446FFF7ECFA0FB1606D56
:102C1000386094F85800022184F85810B8F1050F74
:102C200016D2DFE808F0150B0E141200502080F3C6
:102C30001188BFF34F8FBFF36F8FFEE7616D29439C
:102C400001E0616D491C616502E0022803D0656501
:102C5000012802D029E0002627E0201DFFF766FAB0
:102C6000144DE06AA969884200D9A861124900EBB5
:102C7000800001EB8000211DFFF7A8FAA06A38B19F
:102C8000502080F31188BFF34F8FBFF36F8FFEE7A3
:102C9000E06A2968C96A884207D908494FF080501C
:102CA0000860BFF34F8FBFF36F8FFFF7BBFA30465B
:102CB000BDE8F081240000207001002004ED00E058
:102CC0000548C16919B1806B18B100207047012017
:102CD000704702207047000024000020014840692E
:102CE00070470000240000202DE9F0412E4C002701
:102CF000A06B40B1206A401C2062606A00B10127CD
:102D00003846BDE8F0816669761C666113D160685B
:102D1000006838B1502080F31188BFF34F8FBFF3A4
:102D20006F8FFEE76068A1686160A060A06A401CC8
:102D3000A062FFF7C7F8206BDFF87080864209D3E6
:102D40006068006880B16068C068C568686886426D
:102D50000DD220632068C06A00EB800158F8210082
:102D60000128CAD90127C8E74FF0FF30F1E7281D35
:102D7000FFF7DCF9A86A18B105F11800FFF7D6F9DA
:102D8000E86AA169884200D9A06100EB800108EBE4
:102D90008100291DFFF71AFAE86A2168C96A88428A
:102DA000CED30127CCE700002400002070010020D2
:102DB0002DE9F0411E46154688460746FFF712FAF0
:102DC0001C4C206890F85800022814D02068416DEF
:102DD000B94341652168012081F858005EB10121A5
:102DE0003046FEF783FD14494FF080500860BFF372
:102DF0004F8FBFF36F8FFFF715FAFFF7F3F915B198
:102E00002068406D2860206890F85800022801D0A2
:102E1000002505E02068416D21EA08014165012592
:102E20002168002081F85800FFF7FCF92846BDE82A
:102E3000F08100002400002004ED00E070B50400E3
:102E40004FF0000133D01B4D2868844207D050203A
:102E500080F31188BFF34F8FBFF36F8FFEE7206DB4
:102E600038B1401E2065E36CE26A9A421FD040B13F
:102E70001DE0502080F31188BFF34F8FBFF36F8F99
:102E8000FEE7201DFFF752F9E06CE062C0F1380068
:102E9000A061E06AA969884200D9A861064900EBEF
:102EA000800001EB8000211DFFF790F90121084609
:102EB00070BD0000240000207001002070B5C068C3
:102EC000C46854B104F118000646FFF72FF9144DF9
:102ED000A86B50B13146134815E0502080F311889B
:102EE000BFF34F8FBFF36F8FFEE7201DFFF71EF973
:102EF000E06AA969884200D9A8610B4900EB80000B
:102F000001EB8000211DFFF761F9E06A2968C96AB9
:102F1000884202D90120686270BD002070BD0000A7
:102F200024000020F8050020700100202DE9F04762
:102F30002C4D00242746A86B38B1FFF753F9A86B36
:102F4000401EA863A86B40B146E0502080F3118872
:102F5000BFF34F8FBFF36F8FFEE72969224E012029
:102F6000D1B3A6F5916980463068E0B1F068C468D5
:102F700004F11800FFF7DAF8201DFFF7D7F8E06A30
:102F8000A969884200D9A86100EB800109EB8100A2
:102F9000211DFFF71BF9E06A2968C96A8842E3D35B
:102FA000C5F82480E0E70CB1FEF78CFF2C6A4CB129
:102FB0004FEA0806FFF798FE00B16E62641EF9D171
:102FC00000202862686A38B108490127380708607C
:102FD000BFF34F8FBFF36F8FFFF724F93846BDE87B
:102FE000F087000024000020F805002004ED00E038
:102FF00010B586B0FEF710FD114CA068B8B10020E6
:103000000390049005AA04A903A8FFF7ADF8DDE931
:10301000032102208DE8070000230AA10B48059A2E
:10302000FFF7BFFDE06010B106B0012010BD5020D9
:1030300080F31188BFF34F8FBFF36F8FFEE700005F
:1030400060000020546D722053766300A11F0008B9
:103050002DE9FF411E46134602000A9D4FF0000075
:1030600016D0144CA768002F0FD0CDE900130292A0
:10307000062917DAFFF724FE02284FF000030FD0CD
:1030800000226946A068FFF77BFB04B0BDE8F08131
:10309000502080F31188BFF34F8FBFF36F8FFEE78F
:1030A0002A46EEE70023324669463846FFF718FC09
:1030B000EBE700006000002008310008000000007D
:1030C00000000000000000000000000000020000FE
:1030D00018000000000000000000000001020203D0
:1030E0000405060708090A0B0C0D0E0F101000004E
:1030F00000000000000001020304060708090000A8
:10310000000001020304000064656661756C74547C
:1031100061736B003431000800000020A000000043
:1031200044150008D4310008A000002068390000D0
:10313000541500080000000000000000000000001E
:10314000000000000000000001000000100000006E
:10315000000000000024F400000000000000000057
:10316000000000000000000000000000000000005F
:10317000000000000000000000000000000000004F
:10318000000000000000000000000000000000003F
:10319000000000000000000000000000000000002F
:1031A000000000000000000000000000000000001F
:1031B000000000000000000000000000000000000F
:1031C0000000000000000000AAAAAAAA0000000057
:0431D00000000000FB
:04000005080000ED02
:00000001FF
