:020000040800F2
:10000000083A00209D0100087F1000082F0F00080B
:100010007D100008CF020008D51400080000000081
:1000200000000000000000000000000005010008C2
:10003000D10200080000000049010008A1120008D8
:10004000B7010008B7010008B7010008B7010008B0
:10005000B7010008B7010008B7010008B7010008A0
:10006000B7010008B7010008B7010008B701000890
:10007000B7010008B7010008B7010008B701000880
:10008000B7010008B7010008B7010008B701000870
:10009000B7010008B7010008B7010008B701000860
:1000A000B7010008B7010008B7010008B701000850
:1000B000B7010008B70100082D130008B7010008B8
:1000C000B7010008B7010008B7010008B701000830
:1000D000B7010008B7010008B7010008B701000820
:1000E000B7010008B7010008B7010008DFF810D019
:1000F00000F0CCF8004800477D170008AFF30080FF
:10010000083A0020224B19680868B0E8F00F80F325
:100110000988BFF36F8F4FF0000080F311884EF015
:100120000D0E70470000000006480068006880F36C
:10013000088862B661B6BFF34F8FBFF36F8F00DFE1
:1001400000BF00BF08ED00E0EFF30980BFF36F8F41
:100150000F4B1A6820E9F00F106008B54FF05000FF
:1001600080F31188BFF34F8FBFF36F8F02F094FAC3
:100170004FF0000080F31188BDE808401968086856
:10018000B0E8F00F80F30988BFF36F8F704700BFAE
:1001900024000020EFF305807047000006488047E8
:1001A00006480047FEE7FEE7FEE7FEE7FEE7FEE75C
:1001B000FEE7FEE7FEE7FEE72B130008ED00000870
:1001C000202A04DB203A21FA02F00021704721FAAC
:1001D00002F3D040C2F12002914008431946704713
:1001E00040EA01039B0703D009E008C9121F08C0B9
:1001F000042AFAD203E011F8013B00F8013B521E39
:10020000F9D27047D2B201E000F8012B491EFBD2AF
:1002100070470022F6E710B513460A460446194611
:10022000FFF7F0FF204610BD2DE9F05F05460020E6
:1002300092469B4688460646814640241BE0284657
:10024000414647462246FFF7BBFF53465A46C01A6F
:10025000914110D311461846224600F029F82D1A74
:1002600067EB01084F4622460120002100F020F8EC
:1002700017EB00094E41201EA4F10104DFDC4846C3
:1002800031462A464346BDE8F09F0000064C074D24
:1002900006E0E06840F0010394E807009847103456
:1002A000AC42F6D3FFF726FF44330008643300085E
:1002B000202A04DB203A00FA02F100207047914026
:1002C000C2F1200320FA03F3194390407047FEE780
:1002D000704772B6FEE700002DE9F84FDFF8B891DD
:1002E0000024A9F1040B23460F2709F1040AABF1FE
:1002F000040EC9E00125A5402A40AA427DD1674EDF
:10030000D1F804C0ACEB0608B44532D014DCBCF123
:10031000030F3AD009DCBCF1000F2AD0BCF1010F69
:100320001CD0BCF1020F31D11DE0BCF1110F17D070
:10033000BCF1120F2AD119E0B8F5881F19D006DCDC
:10034000B8F5803F15D0B8F5801F1FD111E0B8F582
:10035000001F0ED0B8F5041F18D10AE0CB6815E0D5
:10036000CB681B1D12E0CB6808330FE0CB680C3361
:100370000CE08B682BB1012B4FF0080303D04561D3
:1003800004E0042302E0056100E00023FF2A01D815
:10039000064601E000F104064FEA840501D9A5F103
:1003A0002005D6F8008007FA05FC28EA0C0803FAB5
:1003B00005F548EA0508C6F800804D68ED0062D5ED
:1003C000374DAE6946F00106AE61AD6924F0030613
:1003D00005F001050095334D06EB050CDCF80850DF
:1003E000A607360F07FA06F825EA0805DFF8B880F1
:1003F000404503D14FF0000817E044E0DFF8AC803F
:10040000404502D14FF001080FE0DFF8A4804045DD
:1004100002D14FF0020808E0DFF89880404502D191
:100420004FF0030801E04FF0040808FA06F848EA24
:100430000508CCF808804D68D9F80060ED024D46FB
:1004400001D5164300E096432E604D68DAF800604F
:10045000AD02554601D5164300E096432E604D6827
:10046000DBF80060AD035D4601D5164300E096431E
:100470002E604D68DEF80060ED03754601D5164329
:1004800000E096432E60641C0D682A46E5407FF428
:1004900031AFBDE8F88F00000804014000001110E2
:1004A000001002400000014000080140000C014023
:1004B00000100140001401408068084000D0012075
:1004C00070470AB1016170470904FBE70148806881
:1004D000704700001400002002488168027811442F
:1004E0008160704714000020074810B5016841F092
:1004F00010010160032000F0A7F80F2000F006F8BB
:1005000000F050F8002010BD0020024030B5054634
:100510001F4887B0C16941F00401C161C06906A9E3
:1005200000F00400009001A800F036F90498B0B182
:1005300000F052F940001749174AB0FBF1F1174893
:10054000491E0260416040F2E7320021C0E9032108
:100550008160816100F018FB040003D015E000F019
:100560003BF9E8E70D4800F03DFB04000DD11E20EB
:1005700000F03CF8102D07D2002229461E2000F082
:1005800043F80748056000E0012407B0204630BD6D
:100590000010024040420F0000080040E800002028
:1005A000180000200F4808B5816941F00101816100
:1005B000816901F001010091C16941F08051C1617F
:1005C000C069002200F0805000900F21901E00F0C2
:1005D0001BF80548416821F0E06141F0007141607D
:1005E00008BD00000010024000000140002809DBA7
:1005F00000F01F02012191404009800000F1E0203D
:10060000C0F8001170470000F0B40E4B1B680C4698
:10061000C3F30223C3F10705042D00D90425191DD6
:10062000072901D2002300E0DB1E012606FA05F1AE
:10063000491E214099409E40761E16403143F0BC31
:1006400000F05ABF0CED00E0064900F00702086810
:100650004FF6FF03184040EA0220034A10430860A7
:10066000704700000CED00E00000FA052DE9F047AE
:100670000F46050061D0434E306800F00700B842D5
:1006800009D2306820F0070038433060306800F04D
:100690000700B84251D128683B4C810712D540076A
:1006A00003D5606840F4E06060602878000703D5F7
:1006B000606840F4605060606068A96820F0F000F5
:1006C000084360602878C00728D06868012810D0E7
:1006D0002168022810D0890700292EDA616821F0EC
:1006E000030101436160FFF7F1FE804641F2883962
:1006F0000DE021688903EFE78901EDE7FFF7E6FEEA
:10070000A0EB0801494502D90320BDE8F0876068E5
:10071000696800F00C00B0EB810FEFD1306800F099
:100720000700B8420BD9306820F00700384330602A
:10073000306800F00700B84201D00120E5E72878D2
:10074000400705D56068E96820F4E0600843606010
:100750002878000706D56068296920F4605040EACF
:10076000C100606000F058F86168084AC1F30311E5
:10077000515CC8400649086006480068FFF7C6FE9D
:100780000020C2E700200240001002401E33000893
:1007900020000020180000200F2202600C4A53683D
:1007A00003F003034360536803F0F003836053686E
:1007B00003F4E063C36052684FF4E06303EAD202DB
:1007C00002610448006800F00700086070470000FC
:1007D00000100240002002400448054900684968B2
:1007E000044AC1F30221515CC84070472000002038
:1007F000001002402E33000804480549006849688B
:10080000044AC1F3C221515CC84070472000002057
:10081000001002402E3300080E4A51680E4801F0C5
:100820000C03042B11D0082B0FD10C48C1F38343C8
:10083000C903C05C0AD55168084AC1F34041921E01
:10084000515C054A5043B0FBF1F0704704494843FE
:10085000704700000010024000127A000E330008BA
:1008600000093D002DE9F84F040070D02078C04DFC
:10087000C00749D06868C0F38100012807D06868C4
:10088000C0F38100022809D16868C00306D5286832
:10089000800339D560680028E7D035E06068B0F59E
:1008A000803F0BD010B1B0F5A02F11D0286820F4F4
:1008B00080302860286820F4802002E0286840F416
:1008C00080302860606890B1FFF700FE06460AE0BD
:1008D000286840F480202860F0E700BFFFF7F6FDAD
:1008E000801B642873D828688003F7D50CE0FFF7D5
:1008F000EDFD064605E000BFFFF7E8FD801B64281C
:10090000F0D828688003F7D420789A4E80074FF0FB
:1009100001094FF0000839D5686810F00C0F07D0B6
:100920006868C0F38100022809D16868C00306D452
:100930002868800714D52069012808D110E02069B3
:10094000B0B1C6F80090FFF7C1FD074605E00AE127
:10095000FFF7BCFDC01B0228C4D828688007F7D564
:100960002868616920F0F80040EAC10028600DE0C5
:10097000C6F80080FFF7AAFD074604E0FFF7A6FDD2
:10098000C01B022823D828688007F7D420780007E6
:100990002CD57948A169D9B1C0F80090FFF796FD30
:1009A000074604E0FFF792FDC01B02280FD8686AD3
:1009B0008007F7D571484FF4FA510068B0FBF1F0A9
:1009C000009000BF0098411E0091FAD20EE080E036
:1009D000C0F80080FFF77AFD074604E0FFF776FDD8
:1009E000C01B022875D8686A8007F7D420784007B2
:1009F00060D5E8690027C00008D4E86940F080505D
:100A0000E861E869012700F0805000905C480168C7
:100A1000C90513D40168834641F480710160FFF772
:100A200055FD824606E000BFFFF750FDA0EB0A002F
:100A300064284ED8DBF80000C005F5D5E068012831
:100A40000AD008B1052813D0286A20F001002862D6
:100A5000286A20F0040002E0286A40F001002862C1
:100A6000E06841F2883B98B1FFF730FD82460BE029
:100A7000286A40F004002862EEE700BFFFF726FD79
:100A8000A0EB0A0159455AD8286A8007F6D50CE030
:100A9000FFF71CFD824605E0FFF718FDA0EB0A01F9
:100AA00059454CD8286A8007F6D41FB1E86920F070
:100AB0008050E861E06988B36968C1F38101022967
:100AC00044D00228C6F8608004D0FFF7FFFC04463B
:100AD00038E034E0FFF7FAFC074604E0FFF7F6FCE5
:100AE000C01B02282BD828688001F7D4206AB0F5F3
:100AF000803F05D16868A16820F400300843686031
:100B0000D4E908010843696821F474110843686056
:100B1000C6F86090FFF7DAFC044606E025E000BF67
:100B2000FFF7D4FC001B022809D828688001F7D5FC
:100B30001BE000BFFFF7CAFC001B022802D90320FC
:100B4000BDE8F88F28688001F4D40EE00128F7D0C2
:100B50006868226A00F48031914204D1616A00F42D
:100B60007010884201D00120EAE70020E8E7000089
:100B70000010024000004242800442422000002057
:100B8000007000407047704710B5040003D094F81F
:100B90003D0010B107E0012010BD002084F83C00AA
:100BA000204600F01EF8022084F83D00211D206838
:100BB00000F0C2FB012084F8460084F83E0084F86F
:100BC0003F0084F8400084F8410084F8420084F833
:100BD000430084F8440084F8450084F83D00002078
:100BE00010BD704790F83D10012901D001207047D9
:100BF000022180F83D100168CA6842F00102CA6013
:100C000000680B49884208D0B0F1804F05D00949EF
:100C1000884202D00849884204D1816801F0070166
:100C2000062903D0016841F00101016000207047EE
:100C3000002C01400004004000080040704770B5DF
:100C40000446006801694FF00005C943890715D4BF
:100C5000C168C943890711D4E91E016101202077C9
:100C6000206880698007204602D0FFF7E7FF04E094
:100C700000F098F8204600F096F825772068016982
:100C8000C943490717D4C168C943490713D46FF052
:100C900004010161022020772068806910F4407F00
:100CA000204602D0FFF7CAFF04E000F07BF82046A0
:100CB00000F079F8257720680169C943090716D43F
:100CC000C168C943090712D46FF00801016104200B
:100CD00020772068C0698007204602D0FFF7AEFF6A
:100CE00004E000F05FF8204600F05DF8257720680A
:100CF0000169C943C90617D4C168C943C90613D4D9
:100D00006FF010010161082020772068C06910F49D
:100D1000407F204602D0FFF791FF04E000F042F848
:100D2000204600F040F8257720680169C943C907CB
:100D300008D1C168C943C90704D1891E0161204691
:100D400000F032F820680169C943090609D4C16876
:100D5000C943090605D46FF0800101612046FFF701
:100D600011FF20680169C943490609D4C168C94314
:100D7000490605D46FF040010161204600F01EF8DD
:100D800020680169C94389060BD4C168C943890633
:100D900007D46FF0200101612046BDE87040FFF7E5
:100DA000F2BE70BD7047704700680349884201D1A8
:100DB000FFF792BB7047000000080040704770B515
:100DC000040004D094F84100002510B106E0012091
:100DD00070BD84F84050204600F024F8242084F8A8
:100DE00041002068C16821F40051C160204600F034
:100DF000D9FA2068016921F49041016120684169B4
:100E000021F02A0141612068C16841F40051C160AC
:100E10006564202084F8410084F842006563002066
:100E200070BD000030B585B0002400940194029498
:100E3000039400681449884224D11448816941F41C
:100E400080418161816901F480410491816941F0AF
:100E50000401816180690E4D00F0040004904FF49C
:100E600000700090022001900320039069462846FC
:100E7000FFF732FA2815CDE90004694628460294A6
:100E8000FFF72AFA05B030BD0038014000100240DB
:100E9000000801402DE9F843044690F841001F4640
:100EA00016460D46202802D00220BDE8F8837DB109
:100EB00076B100206064212084F84100FFF706FB32
:100EC000A6848046E684A068B0F5805F02D003E087
:100ED0000120EAE7206910B12E4600250EE0002629
:100EE0000CE08021204600F0B9FAA0B9AEB116F8A6
:100EF000010B21684860E08C401EE084E08C434692
:100F00004FF0000200970028EBD14FF0400120463F
:100F100000F0A4FA30B10320C7E735F8020BC0F3A4
:100F20000800E6E7202084F841000020BDE7FEE746
:100F300070B5164D002401212846FFF7BDFA01289F
:100F40000CD10A2000F04EFC01212846FFF7B4FA2C
:100F50000128F9D00A2000F045FC01244FF48066F6
:100F600031462846FFF7A8FA01280CD10A2000F0E4
:100F700039FC31462846FFF79FFA0128F9D00A20AC
:100F800000F030FC0224204670BD0000000C01403F
:100F900010B5044A0021044800F07AFC03490860B7
:100FA00010BD0000E8320008E51100081000002024
:100FB00030B585B000242048009401940294039435
:100FC000816941F010018161816901F01001049192
:100FD000816941F020018161816901F02001049162
:100FE000816941F004018161816901F0040104918A
:100FF000816941F0080181618069104D00F00800AD
:101000000490012203212846FFF75BFA0321012007
:10101000CDE90010CDE9024169462846FFF75CF9A9
:1010200040F20140CDE900040220029069460448E4
:10103000FFF752F905B030BD001002400008014032
:10104000000C01400C4810B50A4901604FF4E13131
:101050004160002181600C22C160C0E904128161FD
:10106000C161FFF7ACFE002803D0BDE81040FFF7D8
:1010700030B910BD00380140A0000020FEE7FEE7B7
:101080000F4C00BFFFF754FF02280CD10DA114A094
:1010900000F022FA0021206801F0E6FD012806D0C8
:1010A00010A000F019FA142000F09CFBEAE7206879
:1010B00001F07FF8014612A000F00EFAF3E70000FD
:1010C000000000206B65793220636C69636B2C72C1
:1010D0006563656976652073656D7068720A0000E6
:1010E00025730A006B6579322072656365697665E0
:1010F0002073656D706872206661696C0A0000007B
:101100006B65793220726563656976652073656DFC
:1011100070687220737563636573732C7265737482
:101120002073656D706872206E756D20697320255F
:101130006C640A00104C00BFFFF7FAFE01280ED1C4
:101140000EA114A000F0C8F900231A461946206821
:1011500001F0E0FB012806D00FA000F0BDF914203B
:1011600000F040FBE8E7206801F023F8014610A0FA
:1011700000F0B2F9F3E70000000000206B65793160
:1011800020636C69636B2C73656E642073656D708E
:1011900068720A0025730A006B6579312073656EE9
:1011A000642073656D706872206661696C0A000066
:1011B0006B6579312073656E642073656D7068723C
:1011C00020737563636573732C7265737420736524
:1011D0006D706872206E756D20697320256C640ACD
:1011E00000000000012000F0FDFAFBE71CB501F053
:1011F0003BF80521084601F0D5FA1449086000B310
:1012000013A119A000F068F9104903200831CDE9B5
:1012100000010023802215A1174801F01BFE0B4995
:1012200004200C31CDE900010023802213A11648CF
:1012300001F010FE002001F011F9BDE81C4001F0A2
:1012400033B812A108A000F047F9F3E7000000202E
:1012500073656D7068722063726561746520737563
:10126000636365737300000025730A005265635F52
:101270005461736B000000008110000853656E64B8
:101280005F5461736B0000003511000873656D7069
:10129000687220637265617465206661696C000024
:1012A00010B5502080F31188BFF34F8FBFF36F8FBD
:1012B00001F03CFE18B104494FF080500860002056
:1012C00080F3118810BD000004ED00E030B58FB050
:1012D00028216846FEF79DFF14210AA8FEF799FF12
:1012E00001210804CDE90010002402940225049194
:1012F000CDE907504FF4E01009906846FFF7B2FAC5
:1013000008B172B6FEE70F20CDE90A054FF4806000
:10131000CDE90C4002210AA80E94FFF7A7F9002896
:1013200001D072B6FEE70FB030BD70470148FFF73D
:1013300086BC0000E8000020F0B50268164B174C90
:10134000174D4FF08047984205D0B84203D0A042D5
:1013500001D0A84203D122F070064A683243984275
:1013600005D0B84203D0A04201D0A84203D122F454
:101370004074CA6822434C6922F080022243026012
:101380008A68C2620A688262984201D1096901636F
:1013900001214161F0BD0000002C0140000400402B
:1013A0000008004070B5044600680169E26821F455
:1013B0004051114301612169A068084361690843F4
:1013C0002168CA6841F20C639A430243CA602068EC
:1013D0004169A26921F44071114341611E492068AD
:1013E000884202D1FFF708FA01E0FFF7F5F900EBB8
:1013F000C00101EB0012606864218000B2FBF0F3D1
:10140000B3FBF1F36FF018067343B2FBF0F5B2FBD8
:10141000F0F605EB8305322303EB0515B5FBF1F57B
:10142000B6FBF1F605F0F00505EB0615B2FBF0F69C
:10143000B2FBF0F0B0FBF1F06FF01802504306EB96
:10144000800003EB0010B0FBF1F0216800F00F000A
:101450002844886070BD0000003801402DE9F0414B
:10146000984617460E460446069D27E0681C25D080
:101470002DB1FFF72BF8A0EB0800A8421ED9206879
:101480000C3050E8001F21F4D07140E80012002A0F
:10149000F5D12068143050E8001F21F0010140E828
:1014A0000012002AF5D1202084F8410084F842007F
:1014B000002084F840000320BDE8F0812068006827
:1014C00036EA000004D00020B842CFD00020F3E775
:1014D0000120F9E7FEE700000FB4054B10B503A9A2
:1014E000044A029800F028F810BC5DF814FB0000D4
:1014F000651700089C0000200907090E002804DB7E
:1015000000F1E02080F80014704700F00F0000F1B7
:10151000E02080F8141D704702E008C8121F08C1BF
:10152000002AFAD170477047002001E001C1121F64
:10153000002AFBD1704700002DE9FF4F8BB09A467F
:101540000F460446002606E025280BD052460D998A
:101550009047641C761C20780028F5D10FB03046E7
:10156000BDE8F08F0025A94601227D4900E0054332
:1015700014F8013F203B02FA03F00842F7D120782B
:101580002E2817D114F8010F45F004052A280ED093
:101590006FF02F022078A0F1300109290AD809EB59
:1015A000890102EB410100EB0109641CF2E757F8E5
:1015B000049B641C20786C280DD004DC4C2812D0CD
:1015C0006A2811D104E074280DD07A280CD10AE0E1
:1015D00045F4001507E0617845F48015814202D199
:1015E000641C05F58015641C207869283ED006DC53
:1015F0000028B3D063280BD0642804D136E07328C8
:1016000010D075285CD052460D999047761CA5E005
:1016100017F8040B8DF8000000208DF80100E84653
:10162000012003E057F8048B4FF0FF3069074FF0BB
:10163000000501D40AE06D1C4D450DDA8542FADB48
:1016400018F805100029F6D106E06D1C8542FCDB78
:1016500018F805100029F8D12E4404E018F8010B01
:1016600052460D9990476D1EF8D277E000200A90FF
:10167000C5F302504FF00A0B02280CD001CFC1175E
:10168000021E71F100020CDA0023D0EB030063EBC1
:1016900001012D2208E0FF1D27F00707F7E80201EE
:1016A000EEE72A0504D52B228DF82420012203E041
:1016B000EA070FD02022F7E70DF12008089218E082
:1016C00000200A90C5F302504FF00A0B022803D005
:1016D00001CF00210022EFE7FF1D27F00707F7E801
:1016E0000201F7E75A460A9BFEF79EFD303208F8E2
:1016F000012D50EA0102F5D1ADEB080000F1200BFD
:10170000680701D44FF00109D94502DDA9EB0B00B0
:1017100000E000208146002506E009A85246405D11
:101720000D9990476D1C761C08988542F5DB04E006
:10173000302052460D999047761CB9F10001A9F16D
:101740000109F5DC05E018F8010B52460D999047A8
:10175000761CBBF10001ABF1010BF4DC641CFAE672
:101760000928010013B54FF0FF33012269460248F2
:10177000FFF790FB00981CBDA00000201CB5FEF7F1
:10178000B3FEFFF7A3FDFFF713FCFFF75BFC0BA015
:10179000FFF7A2FE0E490120CDE9000100238022BF
:1017A0000CA10F4801F056FB00F02AFF00F034F8BE
:1017B000FFF7EEFB00F04CF8FEE700007573617276
:1017C0007420696E697420737563636573730A00AE
:1017D0000400002053746172745F5461736B0000E5
:1017E000ED11000810B5EFF3058149B9EFF3108151
:1017F00031B908490968022905D1EFF3118111B106
:101800006FF0050403E0002408B100F001FE20465B
:1018100010BD000074000020EFF3058058B9EFF30D
:10182000108040B909490868022801D030B109E0A8
:10183000EFF3118030B16FF00500704701200860B0
:10184000002070474FF0FF30704700007400002008
:1018500010B5EFF3058060B9EFF3108048B90B497C
:101860000868022802D0012806D00BE0EFF31180AF
:1018700040B16FF0050010BD0220086000F0C0FE0E
:10188000002010BD4FF0FF3010BD0000740000209C
:10189000F0B585B04FEA01034FF00004EFF3058186
:1018A0000394A1BBEFF3108189BB21490968022988
:1018B00002D1EFF3118151BB48B3802618218DF876
:1018C000104004AD42B3176807B13D4697691FB198
:1018D00039467F1E382F02D21779FF0702D0002029
:1018E00005B0F0BD576907B1BE08D2F808C0BCF119
:1018F000000F0DD0D4685C2C18D312693AB137B1FF
:101900008DE806103246294601F0D1FA03900DE029
:10191000D7685FB912694AB903AACDE90012B2B219
:10192000294601F097FA012800D003940398D7E7DD
:10193000740000202DE9F041134C0F4605466669FE
:101940002068001D00F022FC681C07D137B1216817
:10195000BDE8F0410D48091D00F07ABC206835440F
:10196000B5424560216805D2A068BDE8F041091D77
:1019700000F056BC6068091D00F052FC206B8542E7
:1019800000D22563BDE8F08124000020200600205D
:101990002DE9F041054600F067FC2D4C2069401C04
:1019A000206120682B4F10B1E06930B32BE0256037
:1019B0002069012827D1002606EB860007EB80006E
:1019C00000F020FC761C382EF6D3234800F01AFCD9
:1019D0002148143000F016FC1F48283000F012FC9B
:1019E0001D483C3000F00EFC1B48503000F00AFC53
:1019F000194860601430A06005E02068E96AC06A98
:101A0000884200D82560E06A401CE0626864E86AA9
:101A1000A169884200D9A06100EB800007EB80003B
:101A2000291D00F015FC00F03FFCE06900280CD0F7
:101A30002068E96AC06A884207D208494FF080509E
:101A40000860BFF34F8FBFF36F8FBDE8F0810000D8
:101A50002400002070010020D005002004ED00E0EB
:101A600038B500F001FC104CA068C8B90F4800F070
:101A7000C9FB0E48143000F0C5FB0C482060143040
:101A800060600A4B00202833009003F150021021BF
:101A90000A2000F0C8FEA06010B105A100F082FC91
:101AA000BDE8384000F000BC600000203406002093
:101AB000546D72510000000030B4026C0B46002AD5
:101AC0000BD0C1681144C1604468A14201D30168D0
:101AD000C16030BC1846FEF783BB30BC70472DE9AF
:101AE000F041856B174604460026026C82B1C7B1EF
:101AF000E068FEF775FBE168206C091AE160226876
:101B0000914202D26168081AE060022F16D017E0F5
:101B10002068A8B9606801F06DFA06460020606090
:101B20000EE0A068FEF75CFB216CA0680844A06092
:101B30006168884204D32068A06001E005B16D1E91
:101B40006D1CA5633046BDE8F08110B5044690F8E1
:101B5000590058B101280CD002280FD0502080F332
:101B60001188BFF34F8FBFF36F8FFEE7206B00F03C
:101B7000AFFB2046BDE8104000F0AABB10BD00003E
:101B800010484FF42051420706D0C01D0D4920F0E7
:101B90000700411AC1F520510B4A00230144C2E954
:101BA00000030839103A21F0070111604B600B6007
:101BB0000B1AC0E9001393604FF000405360D060EF
:101BC00070470000040E002088000020144E154CC1
:101BD000A6F29C474FF08058DFF84C9012E000BF0F
:101BE00000F042FBF068C568281D00F0CFFA2069BC
:101BF000401E2061E068401EE06000F055FB284672
:101C0000FFF7A3FFE0680028EAD138680128F9D976
:101C1000C9F80080BFF34F8FBFF36F8FF2E700006A
:101C20000C0600202400002004ED00E070B51D46E5
:101C3000049C51B1C4F80020C4E90F0101212046E1
:101C400000F024FE84F84C5070BD2460F4E72DE9C8
:101C5000F0470E46DDE90984174682469100994611
:101C6000089DA522206BFEF7CDFA6FF00301206BD3
:101C700001EB8701084420F00707780707D05020C0
:101C800080F31188BFF34F8FBFF36F8FFEE72218E9
:101C9000315C82F83410315C11B1401C1028F6D34D
:101CA000002684F84360382D00D33725E562C4E967
:101CB0001356201D00F0B1FA04F1180000F0ADFA3F
:101CC0002461C5F138006462A061666584F85860DB
:101CD0004A465146384600F047FA2060B8F1000FF6
:101CE00001D0C8F80040BDE8F087000030B51149C8
:101CF00000E011460A688242FBD34B685C188442BC
:101D000003D1406818444860084643681C18944250
:101D100009D1084C103C2468A24209D052681A44E8
:101D200042600A6812680260814200D0086030BDDB
:101D30000460F9E78800002070B5002441600B4D75
:101D40000061914206D8D11A8269914206D2011DE2
:101D5000686807E09A4203D2994201D3012403E064
:101D6000011D286800F05CFA204670BD600000206C
:101D700010B5044600F078FAA06B28B15FF00004BB
:101D800000F092FA204610BD0124F9E730B589B081
:101D9000304D55E00498002806DADDE90601059A81
:101DA0009047049800284BDB069C606910B1201D09
:101DB00000F0ECF902A800F0B9F8024604980A28ED
:101DC0003ED2DFE800F00505053D263705053D2636
:101DD0000598A169034601442046FFF7ADFF00B313
:101DE000616A20468847E069012829D100200090D7
:101DF0000598A169002342181946204601F040FACF
:101E000078B9502080F31188BFF34F8FBFF36F8FE5
:101E1000FEE70598A06128B1811813462046FFF718
:101E20008BFF0DE0502080F31188BFF34F8FBFF37D
:101E30006F8FFEE794F82C0010B9204600F048FAA6
:101E4000002204A9A86800F073FE0028A2D109B0FE
:101E500030BD0000600000202DE9FC410F46054622
:101E600000F012FC01A800F061F80446019818B1D6
:101E700001F074F9BDE8FC81224EAFB170680068D2
:101E8000A8B30027291B3A46B06800F09FFA01F07A
:101E900065F90028EED11C494FF080500860BFF36F
:101EA0004F8FBFF36F8FE5E7A542EBD801F056F9EE
:101EB00030682746C068C468201D00F067F9E069F3
:101EC000012810D1A0692B4641193A462046FFF758
:101ED00033FF40B100200346014600902A462046C9
:101EE00001F0CEF920B1616A20468847C2E707E0D9
:101EF000502080F31188BFF34F8FBFF36F8FFEE741
:101F00000127BFE76000002004ED00E006484168BB
:101F1000096829B14168C968C9684968016370479F
:101F20004FF0FF31FAE700002400002070B50546AD
:101F300000F0F6FF064E04463069844203D200F0FA
:101F400009F8012000E0002028602046346170BDBF
:101F500060000020F8B5194D1FE0C068C46806682D
:101F6000201D00F013F9616A20468847E0690128C6
:101F700013D1A0693044B04206D924616060211DAC
:101F8000286800F04DF908E0002003460146009063
:101F90003246204601F074F938B1286801680029FA
:101FA000DBD16968C5E90010F8BD502080F31188C5
:101FB000BFF34F8FBFF36F8FFEE70000600000207C
:101FC00008484068401C4FF0500080F3118804D04E
:101FD000BFF34F8FBFF36F8FFEE7BFF34F8FBFF39A
:101FE0006F8FFEE790000020074C2068016841B128
:101FF000C0680021D0F80000FFF72EFFFFF7C6FEF3
:10200000F3E701210020F7E7600000202DE9F0410F
:10201000044600F029F994F9455004F1240609E03A
:10202000606A48B1304601F061F808B100F066FA24
:102030006D1E6DB2002DF3DC4FF0FF3684F8456065
:1020400000F032F900F010F994F9445004F110074F
:1020500009E0206948B1384601F048F808B100F0BD
:102060004DFA6D1E6DB2002DF3DC84F84460BDE8BE
:10207000F04100F019B900002DE9F04105460027B4
:1020800000F002FB314E306808B9FFF779FDF068C7
:1020900005424BD1C5B3083568070ED005F00700DF
:1020A000C0F108000544680707D0502080F311886C
:1020B000BFF34F8FBFF36F8FFEE72DB3706885427C
:1020C00034D82248103001460C6801E020460C4606
:1020D0006168A94202D221680029F7D131688C4297
:1020E00024D007682168016060680837411B102907
:1020F0000FD96019420708D0502080F31188BFF330
:102100004F8FBFF36F8FFEE710E041606560FFF710
:10211000EDFD61687068401A7060B268904200D24C
:10212000B060F06801430020C4E9000101F016F836
:10213000780707D0502080F31188BFF34F8FBFF38B
:102140006F8FFEE73846BDE8F08100007800002080
:102150000449086818B10868026D521C02650868D5
:10216000704700002400002010B5031F4FF080745A
:102170001C601B1F21F001011960191F024B0B602D
:10218000143940380A6010BDC11F0008D0E901327F
:1021900001699A60D0E901235A604A68824201D1FC
:1021A00082684A60002202610868401E0860086870
:1021B000704710B5040006D000F056F8A46B00F08C
:1021C00073F8204610BD502080F31188BFF34F8F65
:1021D000BFF36F8FFEE70000034B036003F15C0069
:1021E00008608020106070474C070020044B03609B
:1021F00003F15C0008604FF48070106070470000CD
:10220000A809002000F108014FF0FF32C0E90112D7
:10221000C1600161002101607047002101617047C8
:1022200030B50B685A1C02D000F1080202E00269C6
:1022300004E02246546825689D42FAD953684B60F1
:1022400099608A60516008610168491C016030BD75
:1022500042684A6093688B60936859609160086136
:102260000168491C01607047502080F31188BFF35A
:102270004F8FBFF36F8F0A494868401C48600128A0
:102280000CD10848006810F0FF0F07D0502080F3F1
:102290001188BFF34F8FBFF36F8FFEE770470000C9
:1022A0009000002004ED00E00849486828B1401E75
:1022B000486001D180F311887047502080F3118865
:1022C000BFF34F8FBFF36F8FFEE700009000002039
:1022D00070B5002827D0144DA0F108046168E868A3
:1022E000014207D1502080F31188BFF34F8FBFF315
:1022F0006F8FFEE722683AB1502080F31188BFF358
:102300004F8FBFF36F8FFEE78143616000F0BCF930
:1023100060686968084468602046FFF7E7FCBDE82C
:10232000704000F01BBF70BD780000204FF0E0202F
:1023300000210161816105494FF47A720968B1FB9E
:10234000F2F1491E41610721016170472000002020
:1023500010B5FDF71FFF114910280ED300F1E02042
:1023600090F8F0030A78904207D2502080F3118849
:10237000BFF34F8FBFF36F8FFEE70948006889688E
:1023800000F4E060884207D9502080F31188BFF341
:102390004F8FBFF36F8FFEE710BD0000900000204D
:1023A0000CED00E010B5084B002200BF53F832409E
:1023B0001CB1521C082AF9D310BD43F8321003EBAC
:1023C000C201486010BD00003001002070B5154604
:1023D0000E460446FFF748FF94F944100020491CBC
:1023E00001D184F8440094F94510491C01D184F8C6
:1023F0004500FFF759FFA06B28B92A46314604F182
:10240000240000F099F82046BDE87040FFF7FEBDBB
:1024100010B5020014D00F48806B38B1502080F303
:102420001188BFF34F8FBFF36F8FFEE700F02CF9D9
:1024300000211046FFF77EFA00F090FE002807D139
:1024400005494FF080500860BFF34F8FBFF36F8F87
:1024500010BD00002400002004ED00E070B505462A
:10246000FFF702FF1E4C05B92568281DFFF78EFEF9
:10247000A86A18B105F11800FFF788FEE06A401C51
:10248000E0622068854207D1291D1648FFF7E0FE6B
:10249000E068401CE06007E02069401E206128469B
:1024A000FFF753FBFFF732FDFFF7FEFEE069002860
:1024B00014D02068854211D1A06B38B1502080F330
:1024C0001188BFF34F8FBFF36F8FFEE706494FF0C0
:1024D00080500860BFF34F8FBFF36F8F70BD000057
:1024E000240000200C06002004ED00E002498A6A66
:1024F00002604969416070472400002001490120C1
:10250000486270472400002010B50C4650B10949BC
:1025100009681831FFF784FE2046BDE8104001210C
:10252000FFF708BA502080F31188BFF34F8FBFF335
:102530006F8FFEE72400002070B514460D4668B189
:102540000A4909681831FFF783FE0CB14FF0FF35D7
:1025500021462846BDE87040FFF7ECB9502080F3D3
:102560001188BFF34F8FBFF36F8FFEE72400002069
:1025700070B504003ED0226DA2B1E06C884200D359
:102580000146E06A884235D0012A33D11A4D2A68C3
:1025900094420FD1502080F31188BFF34F8FBFF3C7
:1025A0006F8FFEE7502080F31188BFF34F8FBFF38A
:1025B0006F8FFEE7E162A269002A02DBC1F13801F8
:1025C000A1610E4E00EB8000616906EB8000814244
:1025D00010D1201DFFF7DAFDE06AA969884200D911
:1025E000A86100EB800006EB8000211DBDE8704073
:1025F000FFF72EBE70BD00002400002070010020F7
:1026000030B587B00024039405AA04A903A8049454
:10261000FFF7E2FDDDE903010094CDE9011000239D
:1026200015A11748059A00F042FC164D0028686372
:102630001FD000F0F5FD012809D0401C19D1502011
:1026400080F31188BFF34F8FBFF36F8FFEE75020E9
:1026500080F31188BFF34F8FBFF36F8F4FF0FF30C0
:1026600028630120E8616C6107B0BDE8304000F0EC
:1026700045B807B030BD000049444C45000000009B
:10268000CD1B0008240000200248816B491C816397
:102690007047000024000020164810B5816B11B16E
:1026A0000121416210BD002141628169124A01E0AD
:1026B000B9B1491E01EB810352F82330002BF7D04A
:1026C00001EB810302EB830202F1080453685B68AB
:1026D0005360A34201D15B685360DA680260816194
:1026E00010BD502080F31188BFF34F8FBFF36F8F61
:1026F000FEE7000024000020700100201CB52649E0
:1027000008780190FF20087008788DF800009DF887
:1027100000009DF8002000F0F000904207D050200B
:1027200080F31188BFF34F8FBFF36F8FFEE79DF8E3
:1027300000001A4B00F0500018700720986005E068
:102740009DF8002052008DF80020401E9DF80020CA
:102750001206F5D49860032807D0502080F3118822
:10276000BFF34F8FBFF36F8FFEE74FF44070986059
:10277000019808700A48016841F47001016001681D
:1027800041F070410160FFF7D1FD00205860FDF776
:10279000CBFC00201CBD000000E400E09000002005
:1027A00020ED00E010B50C4648B184420FD950200E
:1027B00080F31188BFF34F8FBFF36F8FFEE7502078
:1027C00080F31188BFF34F8FBFF36F8FFEE70222B4
:1027D000002100F004F8002800D0846310BDF8B593
:1027E00017460E46050014D0DEB105FB06F050304A
:1027F000FFF742FC04000AD0002084F8460004F1F0
:1028000050023B46314628460094FFF70FFA204617
:10281000F8BD502080F31188BFF34F8FBFF36F8F47
:10282000FEE70020E3E738B5049D18B153B1CAB103
:1028300081B120E0502080F31188BFF34F8FBFF3A8
:102840006F8FFEE7502080F31188BFF34F8FBFF3E7
:102850006F8FFEE7502080F31188BFF34F8FBFF3D7
:102860006F8FFEE739B1502080F31188BFF34F8F8F
:10287000BFF36F8FFEE750241C46012384F84630D7
:102880002B460094FFF7D2F9204638BD70B50D46AF
:10289000040025D0FFF7E8FCD4E90F20216802FBF3
:1028A000001161600021A1632168A1600A46D4E99A
:1028B0000F01401E00FB0121E16021464FF0FF3077
:1028C00001F8440F487004F110008DB1FFF79AFC35
:1028D00004F12400FFF796FCFFF7E6FC012070BD31
:1028E000502080F31188BFF34F8FBFF36F8FFEE747
:1028F00021690029F0D000F0F9FB0028ECD0044950
:102900004FF080500860BFF34F8FBFF36F8FE3E746
:1029100004ED00E02DE9FF4782B01D468A464FF0E6
:102920000008040003D0BAF1000F08D011E05020D5
:1029300080F31188BFF34F8FBFF36F8FFEE7206CDA
:1029400038B1502080F31188BFF34F8FBFF36F8FE2
:10295000FEE7022D0AD1E06B012807D0502080F35A
:102960001188BFF34F8FBFF36F8FFEE700F0CAFAF5
:102970003F4F4FF000094FF0805648B9049838B1E6
:10298000502080F31188BFF34F8FBFF36F8FFEE7A6
:10299000FFF76AFCA06BE16B884207D3022D05D0DC
:1029A0000498D0B1B8F1000F1AD01EE02A46514663
:1029B0002046FFF794F8616A19B104F1240000F091
:1029C00095FB20B13E60BFF34F8FBFF36F8FFFF7D2
:1029D0006BFC012006B0BDE8F087FFF765FC22E044
:1029E0006846FFF783FD4FF00108FFF75DFCFFF736
:1029F0004BFEFFF739FC94F94400401C01D184F8E8
:102A0000449094F94500401C01D184F84590FFF7AB
:102A10004BFC04A9684600F0E3F930B12046FFF70B
:102A2000F5FA00F09BFB0020D4E7FFF71DFCA06B3C
:102A3000E16B884213D1FFF737FC04F110000499D1
:102A4000FFF762FD2046FFF7E1FA00F087FB002860
:102A50009ED13E60BFF34F8FBFF36F8F98E7FFF7B4
:102A600023FC2046FFF7D2FA00F078FB90E7000045
:102A700004ED00E02DE9F0471F469046894604002A
:102A800003D0B9F1000F08D011E0502080F3118875
:102A9000BFF34F8FBFF36F8FFEE7206C38B150202C
:102AA00080F31188BFF34F8FBFF36F8FFEE7022FC4
:102AB0000AD1E06B012807D0502080F31188BFF3C2
:102AC0004F8FBFF36F8FFEE7FFF742FC5020EFF30D
:102AD000118680F31188BFF34F8FBFF36F8FA06B08
:102AE000E16B884206D3022F04D0002086F31188C0
:102AF000BDE8F08794F945503A4649462046FEF72E
:102B0000EEFF681C04D06D1C84F845500120EDE7F1
:102B1000606A0028FAD004F1240000F0E7FA0028E7
:102B2000F4D0B8F1000FF1D00121C8F80010EDE7A2
:102B30002DE9F747002683B08A46040003D0BAF196
:102B4000000F08D011E0502080F31188BFF34F8FA1
:102B5000BFF36F8FFEE7206C38B1502080F31188EF
:102B6000BFF34F8FBFF36F8FFEE700F0CBF9DFF8B5
:102B7000F4804FF000094FF0805748B9059838B1FC
:102B8000502080F31188BFF34F8FBFF36F8FFEE7A4
:102B9000FFF76AFBA56BC5B151462046FEF78CFFD7
:102BA0006D1EA563206950B104F1100000F09EFA7B
:102BB00028B1C8F80070BFF34F8FBFF36F8FFFF7D6
:102BC00073FB012006B0BDE8F087059808B11EB17F
:102BD00006E0FFF769FB27E06846FFF787FC012660
:102BE000FFF762FBFFF750FDFFF73EFB94F944004F
:102BF000401C01D184F8449094F94500401C01D157
:102C000084F84590FFF750FB05A9684600F0E8F806
:102C1000002820460AD0FFF7F9F900F09FFA204675
:102C2000FFF7A6F80028B3D00020CBE7FFF7A0F805
:102C300090B104F124000599FFF766FC2046FFF7E8
:102C4000E5F900F08BFA0028A2D1C8F80070BFF3B4
:102C50004F8FBFF36F8F9BE72046FFF7D7F900F048
:102C60007DFA95E704ED00E02DE9F343002683B0FB
:102C70000400354609D0206C78B1502080F31188CB
:102C8000BFF34F8FBFF36F8FFEE7502080F31188A3
:102C9000BFF34F8FBFF36F8FFEE700F033F9DFF81C
:102CA0003C814FF000094FF0805748B9049838B183
:102CB000502080F31188BFF34F8FBFF36F8FFEE773
:102CC000FFF7D2FAA06BC8B1401EA063206810B90C
:102CD000FFF73EFA6060206950B104F1100000F087
:102CE00005FA28B1C8F80070BFF34F8FBFF36F8F9C
:102CF000FFF7DAFA012005B0BDE8F083049808B1C7
:102D000066B10FE03DB1502080F31188BFF34F8FC3
:102D1000BFF36F8FFEE7FFF7C7FA5DE06846FFF786
:102D2000E5FB0126FFF7C0FAFFF7AEFCFFF79CFAC0
:102D300094F94400401C01D184F8449094F9450072
:102D4000401C01D184F84590FFF7AEFA04A968460B
:102D500000F046F80028204612D0FFF757F900F09F
:102D6000FDF92046FFF704F80028A9D09DB3FFF72E
:102D70007BFA606A50B3206B0068C0F1380126E02E
:102D8000FEF7F6FFE0B1206838B9FFF76DFA60682A
:102D900000F070F90546FFF787FA04F12400049962
:102DA000FFF7B2FB2046FFF731F900F0D7F9002812
:102DB00086D1C8F80070BFF34F8FBFF36F8F7FE7E6
:102DC0002046FFF723F900F0C9F979E70021606890
:102DD000FFF7CEFB9FE7FFE700208CE704ED00E064
:102DE0002DE9F0410C46050011D0C4B1FFF73CFAC3
:102DF000174B5A696E682068911B471C17D02F68C3
:102E00009B6A9F4219D0964217D8012410E05020A7
:102E100080F31188BFF34F8FBFF36F8FFEE7502011
:102E200080F31188BFF34F8FBFF36F8FFEE700244D
:102E3000FFF73AFA2046BDE8F081884205D9401AEA
:102E400020602846FFF752FBF1E700202060DCE716
:102E5000240000202DE9FF5F8346DDE90E879946B7
:102E600016468A469000FFF707F905001CD05C2043
:102E7000FFF702F9040014D00020256384F85900FC
:102E8000CDE90240CDE900874B46324651465846CF
:102E9000FEF7DDFE2046FEF77BFD012004B0BDE815
:102EA000F09F2846FFF714FA4FF0FF30F6E7F0B531
:102EB00085B0DDE90B640A9DA6B1DCB15C27009703
:102EC0002663022684F85960002604AFCDE9024645
:102ED000CDE90057FEF7BBFE2046FEF759FD0498EA
:102EE00005B0F0BD502080F31188BFF34F8FBFF3C2
:102EF0006F8FFEE7502080F31188BFF34F8FBFF331
:102F00006F8FFEE70548C16919B1806B18B10020C9
:102F10007047012070470220704700002400002005
:102F20000148406970470000240000202DE9F0416D
:102F30002E4C0027A06B40B1206A401C2062606AC2
:102F400000B101273846BDE8F0816669761C6661EC
:102F500013D16068006838B1502080F31188BFF346
:102F60004F8FBFF36F8FFEE76068A1686160A0605C
:102F7000A06A401CA062FEF7C9FF206BDFF87080DA
:102F8000864209D36068006880B16068C068C5681F
:102F9000686886420DD220632068C06A00EB800119
:102FA00058F821000128CAD90127C8E74FF0FF309F
:102FB000F1E7281DFFF7EAF8A86A18B105F1180033
:102FC000FFF7E4F8E86AA169884200D9A06100EB44
:102FD000800108EB8100291DFFF73AF9E86A2168B2
:102FE000C96A8842CED30127CCE700002400002024
:102FF0007001002070B504004FF0000133D01B4D6C
:103000002868844207D0502080F31188BFF34F8F87
:10301000BFF36F8FFEE7206D38B1401E2065E36C73
:10302000E26A9A421FD040B11DE0502080F311881F
:10303000BFF34F8FBFF36F8FFEE7201DFFF7A6F89A
:10304000E06CE062C0F13800A061E06AA9698842E2
:1030500000D9A861064900EB800001EB8000211D2A
:10306000FFF7F6F80121084670BD0000240000209B
:103070007001002070B504004FF000002BD0194DF6
:10308000E16A2A68D26A914226D2A069002804DB4C
:103090002868C06AC0F13800A061134E01EB8101BD
:1030A000606906EB8101884211D1201DFFF76EF89F
:1030B0002868C06AE062A969884200D9A86100EB6B
:1030C000800006EB8000211DFFF7C2F802E02868AF
:1030D000C06AE062012070BDE16C2A68D26A914248
:1030E000F8D370BD240000207001002070B5C068C6
:1030F000C46854B104F118000646FFF747F8144DB0
:10310000A86B50B13146134815E0502080F3118868
:10311000BFF34F8FBFF36F8FFEE7201DFFF736F829
:10312000E06AA969884200D9A8610B4900EB8000D8
:1031300001EB8000211DFFF78BF8E06A2968C96A5E
:10314000884202D90120686270BD002070BD000075
:1031500024000020F8050020700100202DE9F04730
:103160002C4D00242746A86B38B1FFF77DF8A86BDB
:10317000401EA863A86B40B146E0502080F3118840
:10318000BFF34F8FBFF36F8FFEE72969224E0120F7
:10319000D1B3A6F5916980463068E0B1F068C468A3
:1031A00004F11800FEF7F2FF201DFEF7EFFFE06AC2
:1031B000A969884200D9A86100EB800109EB810070
:1031C000211DFFF745F8E06A2968C96A8842E3D300
:1031D000C5F82480E0E70CB1FEF798FE2C6A4CB1EC
:1031E0004FEA0806FFF7A2FE00B16E62641EF9D135
:1031F00000202862686A38B108490127380708604A
:10320000BFF34F8FBFF36F8FFFF74EF83846BDE81F
:10321000F087000024000020F805002004ED00E005
:1032200010B586B0FEF71CFC114CA068B8B10020A8
:103230000390049005AA04A903A8FEF7D7FFDDE9CF
:10324000032102208DE8070000230AA10B48059AFC
:10325000FFF72DFEE06010B106B0012010BD502038
:1032600080F31188BFF34F8FBFF36F8FFEE700002D
:1032700060000020546D722053766300E91F00083F
:103280002DE9FF411E46134602000A9D4FF0000043
:1032900016D0144CA768002F0FD0CDE9001302926E
:1032A000062917DAFFF72EFE02284FF000030FD091
:1032B00000226946A068FFF72DFB04B0BDE8F0814D
:1032C000502080F31188BFF34F8FBFF36F8FFEE75D
:1032D0002A46EEE70023324669463846FFF7CAFB26
:1032E000EBE7000060000020383300080000000019
:1032F00000000000000000000000000000020000CC
:10330000180000000000000000000000010202039D
:103310000405060708090A0B0C0D0E0F101000001B
:103320000000000000000102030406070809000075
:10333000000001020304000064656661756C74544A
:1033400061736B006433000800000020A0000000DF
:103350001815000804340008A00000206839000097
:103360002815000800000000000000000000000018
:10337000000000000000000001000000100000003C
:10338000000000000024F400000000000000000025
:10339000000000000000000000000000000000002D
:1033A000000000000000000000000000000000001D
:1033B000000000000000000000000000000000000D
:1033C00000000000000000000000000000000000FD
:1033D00000000000000000000000000000000000ED
:1033E00000000000000000000000000000000000DD
:1033F0000000000000000000AAAAAAAA0000000025
:0434000000000000C8
:04000005080000ED02
:00000001FF
