:020000040800F2
:10000000C840002021020008BF0F00082F0F000881
:10001000BD0F00086B040008CD10000800000000B0
:10002000000000000000000000000000890100083E
:100030006D04000800000000CD010008C90F000891
:100040003B0200083B0200083B0200083B0200089C
:100050003B0200083B0200083B0200083B0200088C
:100060003B0200083B0200083B0200083B0200087C
:100070003B0200083B0200083B0200083B0200086C
:100080003B0200083B0200083B0200083B0200085C
:100090003B0200083B0200083B0200083B0200084C
:1000A0003B0200083B0200083B0200083B0200083C
:1000B0003B0200083B020008551000083B02000804
:1000C0003B0200083B0200083B0200083B0200081C
:1000D0003B0200083B0200083B0200083B0200080C
:1000E0003B0200083B0200083B02000800F002F857
:1000F00000F03AF80AA090E8000C82448344AAF188
:100100000107DA4501D100F02FF8AFF2090EBAE885
:100110000F0013F0010F18BFFB1A43F0010318473B
:100120004028000060280000103A24BF78C878C139
:10013000FAD8520724BF30C830C144BF04680C60ED
:10014000704700000023002400250026103A28BF35
:1001500078C1FBD8520728BF30C148BF0B60704739
:100160001FB51FBD10B510BD00F045F91146FFF7D2
:10017000F7FF00F0BDFF00F063F903B4FFF7F2FFF3
:1001800003BC00F06BF90000224B19680868B0E866
:10019000F00F80F30988BFF36F8F4FF0000080F3FA
:1001A00011884EF00D0E70470000000006480068F0
:1001B000006880F3088862B661B6BFF34F8FBFF363
:1001C0006F8F00DF00BF00BF08ED00E0EFF3098094
:1001D000BFF36F8F0F4B1A6820E9F00F106008B55E
:1001E0004FF0500080F31188BFF34F8FBFF36F8F34
:1001F00001F098FE4FF0000080F31188BDE8084040
:1002000019680868B0E8F00F80F30988BFF36F8FB2
:10021000704700BF1C000020EFF30580704700000E
:100220000948804709480047FEE7FEE7FEE7FEE78A
:10023000FEE7FEE7FEE7FEE7FEE7FEE704480549C6
:10024000054A064B7047000053100008ED000008F7
:10025000C83A0020C8400020C83C0020C83C00200C
:10026000032A40F2308010F0030C00F0158011F8E2
:10027000013BBCF1020F624498BF11F801CB00F8BA
:10028000013B38BF11F8013BA2F1040298BF00F80E
:1002900001CB38BF00F8013B11F0030300F0578099
:1002A000083AC0F0088051F8043B083A51F804CBF2
:1002B000A0E80810F5E7121D5CBF51F8043B40F8B8
:1002C000043BAFF30080D20724BF11F8013B11F8C3
:1002D00001CB48BF11F8012B24BF00F8013B00F807
:1002E00001CB48BF00F8012B704702F0FF0343EA3F
:1002F000032242EA024200F05EB84FF0000200B56D
:10030000134694469646203922BFA0E80C50A0E838
:100310000C50B1F12001BFF4F7AF090728BFA0E8E6
:100320000C5048BF0CC05DF804EB890028BF40F8B2
:10033000042B08BF704748BF20F8022B11F0804FF4
:1003400018BF00F8012B704770477047704710B511
:10035000203AC0F00B80B1E81850203AA0E81850BD
:10036000B1E81850A0E81850BFF4F5AF5FEA027C7E
:1003700024BFB1E81850A0E8185044BF18C918C0ED
:10038000BDE810405FEA827C24BF51F8043B40F88E
:10039000043B08BF7047D20728BF31F8023B48BF73
:1003A00011F8012B28BF20F8023B48BF00F8012BB1
:1003B00070474FF000020429C0F0128010F0030CC7
:1003C0003FF49DAFCCF1040CBCF1020F18BF00F854
:1003D000012BA8BF20F8022BA1EB0C01FFF78FBF68
:1003E0005FEAC17C24BF00F8012B00F8012B48BF55
:1003F00000F8012B7047754600F02CF8AE4605005A
:100400006946534620F00700854618B020B5FFF72F
:1004100015FFBDE820404FF000064FF000074FF0F9
:1004200000084FF0000B21F00701AC46ACE8C00912
:10043000ACE8C009ACE8C009ACE8C0098D4670471B
:1004400010B50446AFF300802046BDE81040FFF72A
:1004500094BE000000487047683A00200149182007
:10046000ABBEFEE7260002007047FEE770470000C3
:100470002DE9F84FDFF8B8910024A9F1040B2346C9
:100480000F2709F1040AABF1040EC9E00125A540CC
:100490002A40AA427DD1674ED1F804C0ACEB0608D1
:1004A000B44532D014DCBCF1030F3AD009DCBCF106
:1004B000000F2AD0BCF1010F1CD0BCF1020F31D1CA
:1004C0001DE0BCF1110F17D0BCF1120F2AD119E0B9
:1004D000B8F5881F19D006DCB8F5803F15D0B8F5FF
:1004E000801F1FD111E0B8F5001F0ED0B8F5041F12
:1004F00018D10AE0CB6815E0CB681B1D12E0CB6871
:1005000008330FE0CB680C330CE08B682BB1012B68
:100510004FF0080303D0456104E0042302E00561C5
:1005200000E00023FF2A01D8064601E000F104069E
:100530004FEA840501D9A5F12005D6F8008007FA15
:1005400005FC28EA0C0803FA05F548EA0508C6F890
:1005500000804D68ED0062D5374DAE6946F001066A
:10056000AE61AD6924F0030605F001050095334D39
:1005700006EB050CDCF80850A607360F07FA06F85C
:1005800025EA0805DFF8B880404503D14FF00008A0
:1005900017E044E0DFF8AC80404502D14FF001089D
:1005A0000FE0DFF8A480404502D14FF0020808E0D8
:1005B000DFF89880404502D14FF0030801E04FF08A
:1005C000040808FA06F848EA0508CCF808804D68DF
:1005D000D9F80060ED024D4601D5164300E0964380
:1005E0002E604D68DAF80060AD02554601D516431D
:1005F00000E096432E604D68DBF80060AD035D4679
:1006000001D5164300E096432E604D68DEF8006089
:10061000ED03754601D5164300E096432E60641C39
:100620000D682A46E5407FF431AFBDE8F88F000041
:1006300008040140000011100010024000000140B9
:1006400000080140000C014000100140001401406E
:100650000AB1016170470904FBE7000001488068A6
:10066000704700000C0000200248816802781144A5
:10067000816070470C000020074810B5016841F008
:1006800010010160032000F0A7F80F2000F006F829
:1006900000F050F8002010BD0020024030B50546A3
:1006A0001F4887B0C16941F00401C161C06906A952
:1006B00000F00400009001A800F036F90498B0B1F1
:1006C00000F052F940001749174AB0FBF1F1174802
:1006D000491E0260416040F2E7320021C0E9032177
:1006E0008160816100F008FB040003D015E000F098
:1006F0003BF9E8E70D4800F02DFB04000DD11E206A
:1007000000F03CF8102D07D2002229461E2000F0F0
:1007100043F80748056000E0012407B0204630BDDB
:100720000010024040420F00000800404C0500202D
:10073000100000200F4808B5816941F00101816176
:10074000816901F001010091C16941F08051C161ED
:10075000C069002200F0805000900F21901E00F030
:100760001BF80548416821F0E06141F000714160EB
:1007700008BD00000010024000000140002809DB15
:1007800000F01F02012191404009800000F1E020AB
:10079000C0F8001170470000F0B40E4B1B680C4607
:1007A000C3F30223C3F10705042D00D90425191D45
:1007B000072901D2002300E0DB1E012606FA05F11D
:1007C000491E214099409E40761E16403143F0BCA0
:1007D00000F07DBC0CED00E0064900F0070208685F
:1007E0004FF6FF03184040EA0220034A1043086016
:1007F000704700000CED00E00000FA052DE9F0471D
:100800000F46050061D0434E306800F00700B84243
:1008100009D2306820F0070038433060306800F0BB
:100820000700B84251D128683B4C810712D54007D8
:1008300003D5606840F4E06060602878000703D565
:10084000606840F4605060606068A96820F0F00063
:10085000084360602878C00728D06868012810D055
:100860002168022810D0890700292EDA616821F05A
:10087000030101436160FFF7F1FE804641F28839D0
:100880000DE021688903EFE78901EDE7FFF7E6FE58
:10089000A0EB0801494502D90320BDE8F087606854
:1008A000696800F00C00B0EB810FEFD1306800F008
:1008B0000700B8420BD9306820F007003843306099
:1008C000306800F00700B84201D00120E5E7287841
:1008D000400705D56068E96820F4E060084360607F
:1008E0002878000706D56068296920F4605040EA3E
:1008F000C100606000F048F86168084AC1F3031164
:10090000515CC8400649086006480068FFF7C6FE0B
:100910000020C2E700200240001002403A290008EF
:1009200018000020100000200F2202600C4A5368BB
:1009300003F003034360536803F0F00383605368DC
:1009400003F4E063C36052684FF4E06303EAD20249
:1009500002610448006800F007000860704700006A
:100960000010024000200240044805490068496820
:10097000044AC1F30221515CC840704718000020AE
:10098000001002404A2900080E4A51680E4801F042
:100990000C03042B11D0082B0FD10C48C1F3834357
:1009A000C903C05C0AD55168084AC1F34041921E90
:1009B000515C054A5043B0FBF1F07047044948438D
:1009C000704700000010024000127A002A29000837
:1009D00000093D002DE9F84F040070D02078C04D8B
:1009E000C00749D06868C0F38100012807D0686853
:1009F000C0F38100022809D16868C00306D52868C1
:100A0000800339D560680028E7D035E06068B0F52C
:100A1000803F0BD010B1B0F5A02F11D0286820F482
:100A200080302860286820F4802002E0286840F4A4
:100A300080302860606890B1FFF710FE06460AE03B
:100A4000286840F480202860F0E700BFFFF706FE2A
:100A5000801B642873D828688003F7D50CE0FFF763
:100A6000FDFD064605E000BFFFF7F8FD801B64288A
:100A7000F0D828688003F7D420789A4E80074FF08A
:100A800001094FF0000839D5686810F00C0F07D045
:100A90006868C0F38100022809D16868C00306D4E1
:100AA0002868800714D52069012808D110E0206942
:100AB000B0B1C6F80090FFF7D1FD074605E00AE1A6
:100AC000FFF7CCFDC01B0228C4D828688007F7D5E3
:100AD0002868616920F0F80040EAC10028600DE054
:100AE000C6F80080FFF7BAFD074604E0FFF7B6FD41
:100AF000C01B022823D828688007F7D42078000775
:100B00002CD57948A169D9B1C0F80090FFF7A6FDAE
:100B1000074604E0FFF7A2FDC01B02280FD8686A51
:100B20008007F7D571484FF4FA510068B0FBF1F037
:100B3000009000BF0098411E0091FAD20EE080E0C4
:100B4000C0F80080FFF78AFD074604E0FFF786FD46
:100B5000C01B022875D8686A8007F7D42078400740
:100B600060D5E8690027C00008D4E86940F08050EB
:100B7000E861E869012700F0805000905C48016856
:100B8000C90513D40168834641F480710160FFF701
:100B900065FD824606E000BFFFF760FDA0EB0A009E
:100BA00064284ED8DBF80000C005F5D5E0680128C0
:100BB0000AD008B1052813D0286A20F00100286265
:100BC000286A20F0040002E0286A40F00100286250
:100BD000E06841F2883B98B1FFF740FD82460BE0A8
:100BE000286A40F004002862EEE700BFFFF736FDF8
:100BF000A0EB0A0159455AD8286A8007F6D50CE0BF
:100C0000FFF72CFD824605E0FFF728FDA0EB0A0167
:100C100059454CD8286A8007F6D41FB1E86920F0FE
:100C20008050E861E06988B36968C1F381010229F5
:100C300044D00228C6F8608004D0FFF70FFD0446B8
:100C400038E034E0FFF70AFD074604E0FFF706FD51
:100C5000C01B02282BD828688001F7D4206AB0F581
:100C6000803F05D16868A16820F4003008436860BF
:100C7000D4E908010843696821F4741108436860E5
:100C8000C6F86090FFF7EAFC044606E025E000BFE6
:100C9000FFF7E4FC001B022809D828688001F7D57B
:100CA0001BE000BFFFF7DAFC001B022802D903207B
:100CB000BDE8F88F28688001F4D40EE00128F7D051
:100CC0006868226A00F48031914204D1616A00F4BC
:100CD0007010884201D00120EAE70020E8E7000018
:100CE00000100240000042428004424218000020EE
:100CF000007000407047704710B5040003D094F8AE
:100D00003D0010B107E0012010BD002084F83C0038
:100D1000204600F01EF8022084F83D00211D2068C6
:100D200000F09EF9012084F8460084F83E0084F823
:100D30003F0084F8400084F8410084F8420084F8C1
:100D4000430084F8440084F8450084F83D00002006
:100D500010BD704790F83D10012901D00120704767
:100D6000022180F83D100168CA6842F00102CA60A1
:100D700000680B49884208D0B0F1804F05D009497E
:100D8000884202D00849884204D1816801F00701F5
:100D9000062903D0016841F001010160002070477D
:100DA000002C01400004004000080040704770B56E
:100DB0000446006801694FF00005C943890715D44E
:100DC000C168C943890711D4E91E01610120207758
:100DD000206880698007204602D0FFF7E7FF04E023
:100DE00000F098F8204600F096F825772068016911
:100DF000C943490717D4C168C943490713D46FF0E1
:100E000004010161022020772068806910F4407F8E
:100E1000204602D0FFF7CAFF04E000F07BF820462E
:100E200000F079F8257720680169C943090716D4CD
:100E3000C168C943090712D46FF008010161042099
:100E400020772068C0698007204602D0FFF7AEFFF8
:100E500004E000F05FF8204600F05DF82577206898
:100E60000169C943C90617D4C168C943C90613D467
:100E70006FF010010161082020772068C06910F42C
:100E8000407F204602D0FFF791FF04E000F042F8D7
:100E9000204600F040F8257720680169C943C9075A
:100EA00008D1C168C943C90704D1891E0161204620
:100EB00000F032F820680169C943090609D4C16805
:100EC000C943090605D46FF0800101612046FFF790
:100ED00011FF20680169C943490609D4C168C943A3
:100EE000490605D46FF040010161204600F01EF86C
:100EF00020680169C94389060BD4C168C9438906C2
:100F000007D46FF0200101612046BDE87040FFF773
:100F1000F2BE70BD7047704700680349884201D136
:100F2000FFF7A2BB70470000000800407047FEE7D3
:100F300010B5044A0021044800F072F90349086022
:100F400010BD000004290008C10F0008080000209F
:100F500030B585B00024174800940194029403949E
:100F6000816941F010018161816901F010010491F2
:100F7000816941F020018161816901F020010491C2
:100F8000816941F00401816180690B4D00F004002A
:100F90000490012203212846FFF75AFB0321012078
:100FA000CDE90010CDE9024169462846FFF760FA15
:100FB00005B030BD0010024000080140FEE7FEE72A
:100FC000322000F0D7F8FBE710B5502080F31188ED
:100FD000BFF34F8FBFF36F8F01F0F2FA18B10449DE
:100FE0004FF080500860002080F3118810BD000091
:100FF00004ED00E030B58FB028216846FFF77DF999
:1010000014210AA8FFF779F901210804CDE900109D
:101010000024029402250491CDE907504FF4E0101A
:1010200009906846FFF7D6FC08B172B6FEE70F20BC
:10103000CDE90A054FF48060CDE90C4002210AA8F1
:101040000E94FFF7DBFB002801D072B6FEE70FB06D
:1010500030BD70470148FFF7AABE00004C050020D4
:10106000F0B50268164B174C174D4FF08047984269
:1010700005D0B84203D0A04201D0A84203D122F04B
:1010800070064A683243984205D0B84203D0A04265
:1010900001D0A84203D122F44074CA6822434C69AB
:1010A00022F08002224302608A68C2620A68826279
:1010B000984201D10969016301214161F0BD00003D
:1010C000002C01400004004000080040FEE7090732
:1010D000090E002804DB00F1E02080F800147047BE
:1010E00000F00F0000F1E02080F8141D70470000B0
:1010F0000EB5FFF7C1FAFFF77DFFFFF729FF124A90
:101100000120A2F500718DE80700002380220FA1C5
:10111000114801F016FA114C114A00232060A2F583
:10112000007102208DE8070080220EA1104801F016
:1011300008FA606000F0AAFE00F036F8FFF7F8FE4B
:1011400000F04EF8FEE70000940200207461736B1B
:10115000315461736B000000051B00080000002083
:10116000F00400207461736B325461736B000000F3
:10117000311B000810B5EFF3058149B9EFF3108179
:1011800031B908490968022905D1EFF3118111B17C
:101190006FF0050403E0002408B100F00FFE2046C4
:1011A00010BD00006C000020EFF3058058B9EFF38C
:1011B000108040B909490868022801D030B109E01F
:1011C000EFF3118030B16FF0050070470120086027
:1011D000002070474FF0FF30704700006C00002087
:1011E00010B5EFF3058060B9EFF3108048B90B49F3
:1011F0000868022802D0012806D00BE0EFF3118026
:1012000040B16FF0050010BD0220086000F03EFE06
:10121000002010BD4FF0FF3010BD00006C0000201A
:10122000F0B585B04FEA01034FF00004EFF30581FC
:101230000394A1BBEFF3108189BB214909680229FE
:1012400002D1EFF3118151BB48B3802618218DF8EC
:10125000104004AD42B3176807B13D4697691FB10E
:1012600039467F1E382F02D21779FF0702D000209F
:1012700005B0F0BD576907B1BE08D2F808C0BCF18F
:10128000000F0DD0D4685C2C18D312693AB137B175
:101290008DE806103246294601F053F903900DE01F
:1012A000D7685FB912694AB903AACDE90012B2B290
:1012B000294601F019F9012800D003940398D7E7D3
:1012C0006C0000202DE9F041134C0F46054666697D
:1012D0002068001D00F042FC681C07D137B121686E
:1012E000BDE8F0410D48091D00F088BC2068354478
:1012F000B5424560216805D2A068BDE8F041091DEE
:1013000000F064BC6068091D00F060FC206B854241
:1013100000D22563BDE8F0811C000020840A002073
:101320002DE9F041054600F075FC2D4C2069401C6C
:10133000206120682B4F10B1E06930B32BE02560AD
:101340002069012827D1002606EB860007EB8000E4
:1013500000F02EFC761C382EF6D3234800F028FC33
:101360002148143000F024FC1F48283000F020FCF5
:101370001D483C3000F01CFC1B48503000F018FCAD
:10138000194860601430A06005E02068E96AC06A0E
:10139000884200D82560E06A401CE0626864E86A20
:1013A000A169884200D9A06100EB800007EB8000B2
:1013B000291D00F023FC00F04DFCE06900280CD052
:1013C0002068E96AC06A884207D208494FF0805015
:1013D0000860BFF34F8FBFF36F8FBDE8F08100004F
:1013E0001C000020D4050020340A002004ED00E099
:1013F00038B500F00FFC104CA068C8B90F4800F0D9
:10140000D7FB0E48143000F0D3FB0C48206014309A
:1014100060600A4B00202833009003F15002102135
:101420000A2000F005FEA06010B105A100F090FCBC
:10143000BDE8384000F00EBC58000020980A00209B
:10144000546D72510000000030B4026C0B46002A4B
:101450000BD0C1681144C1604468A14201D3016846
:10146000C16030BC1846FEF7FBBE30BC70472DE9AA
:10147000F041856B174604460026026C82B1C7B165
:10148000E068FEF7EDFEE168206C091AE160226871
:10149000914202D26168081AE060022F16D017E06C
:1014A0002068A8B9606801F0EFF806460020606087
:1014B0000EE0A068FEF7D4FE216CA0680844A0608E
:1014C0006168884204D32068A06001E005B16D1E08
:1014D0006D1CA5633046BDE8F08110B5044690F858
:1014E000590058B101280CD002280FD0502080F3A9
:1014F0001188BFF34F8FBFF36F8FFEE7206B00F0B3
:10150000BDFB2046BDE8104000F0B8BB10BD000098
:1015100010484FF42051420706D0C01D0D4920F05D
:101520000700411AC1F520510B4A00230144C2E9CA
:1015300000030839103A21F0070111604B600B607D
:101540000B1AC0E9001393604FF000405360D06065
:10155000704700006812002080000020144E154CD7
:10156000A6F29C474FF08058DFF84C9012E000BF85
:1015700000F050FBF068C568281D00F0EFFA206904
:10158000401E2061E068401EE06000F063FB2846DA
:10159000FFF7A3FFE0680028EAD138680128F9D9ED
:1015A000C9F80080BFF34F8FBFF36F8FF2E70000E1
:1015B000700A00201C00002004ED00E070B51D46FC
:1015C000049C51B1C4F80020C4E90F010121204658
:1015D00000F062FD84F84C5070BD2460F4E72DE902
:1015E000F0470E46DDE90984174682469100994688
:1015F000089DA522206BFEF778FE6FF00301206B9B
:1016000001EB8701084420F00707780707D0502036
:1016100080F31188BFF34F8FBFF36F8FFEE722185F
:10162000315C82F83410315C11B1401C1028F6D3C3
:10163000002684F84360382D00D33725E562C4E9DD
:101640001356201D00F0BFFA04F1180000F0BBFA99
:101650002461C5F138006462A061666584F8586051
:101660004A465146384600F03BFA2060B8F1000F78
:1016700001D0C8F80040BDE8F087000030B511493E
:1016800000E011460A688242FBD34B685C18844232
:1016900003D1406818444860084643681C189442C7
:1016A00009D1084C103C2468A24209D052681A445F
:1016B00042600A6812680260814200D0086030BD52
:1016C0000460F9E78000002070B5002441600B4DF4
:1016D0000061914206D8D11A8269914206D2011D59
:1016E000686807E09A4203D2994201D3012403E0DB
:1016F000011D286800F06AFA204670BD58000020DD
:1017000010B5044600F086FAA06B28B15FF0000423
:1017100000F0A0FA204610BD0124F9E730B589B0E9
:10172000304D55E00498002806DADDE90601059AF7
:101730009047049800284BDB069C606910B1201D7F
:1017400000F00CFA02A800F0B9F8024604980A2842
:101750003ED2DFE800F00505053D263705053D26AC
:101760000598A169034601442046FFF7ADFF00B389
:10177000616A20468847E069012829D1002000904D
:101780000598A169002342181946204601F086F801
:1017900078B9502080F31188BFF34F8FBFF36F8F5C
:1017A000FEE70598A06128B1811813462046FFF78F
:1017B0008BFF0DE0502080F31188BFF34F8FBFF3F4
:1017C0006F8FFEE794F82C0010B9204600F056FA0F
:1017D000002204A9A86800F0B1FD0028A2D109B038
:1017E00030BD0000580000202DE9FC410F460546A1
:1017F00000F090FB01A800F061F80446019818B1D0
:1018000000F0BAFFBDE8FC81224EAFB170680068FD
:10181000A8B30027291B3A46B06800F0ADFA00F0E3
:10182000ABFF0028EED11C494FF080500860BFF399
:101830004F8FBFF36F8FE5E7A542EBD800F09CFF19
:1018400030682746C068C468201D00F087F9E06949
:10185000012810D1A0692B4641193A462046FFF7CE
:1018600033FF40B100200346014600902A4620463F
:1018700001F014F820B1616A20468847C2E707E00A
:10188000502080F31188BFF34F8FBFF36F8FFEE7B7
:101890000127BFE75800002004ED00E0064841683A
:1018A000096829B14168C968C96849680163704716
:1018B0004FF0FF31FAE700001C00002070B505462C
:1018C00000F078FE064E04463069844203D200F0F0
:1018D00009F8012000E0002028602046346170BD36
:1018E00058000020F8B5194D1FE0C068C4680668AC
:1018F000201D00F033F9616A20468847E06901281D
:1019000013D1A0693044B04206D924616060211D22
:10191000286800F05BF908E00020034601460090CB
:101920003246204600F0BAFF38B128680168002925
:10193000DBD16968C5E90010F8BD502080F311883B
:10194000BFF34F8FBFF36F8FFEE7000058000020FA
:1019500008484068401C4FF0500080F3118804D0C4
:10196000BFF34F8FBFF36F8FFEE7BFF34F8FBFF310
:101970006F8FFEE788000020074C2068016841B1A6
:10198000C0680021D0F80000FFF72EFFFFF7C6FE69
:10199000F3E701210020F7E7580000202DE9F0418E
:1019A000044600F037F994F9455004F1240609E0A3
:1019B000606A48B1304600F0A7FE08B100F02CFA8A
:1019C0006D1E6DB2002DF3DC4FF0FF3684F84560DC
:1019D00000F040F900F01EF994F9445004F11007AA
:1019E00009E0206948B1384600F08EFE08B100F0E9
:1019F00013FA6D1E6DB2002DF3DC84F84460BDE86F
:101A0000F04100F027B900002DE9F041054600271C
:101A100000F080FA314E306808B9FFF779FDF068C0
:101A200005424BD1C5B3083568070ED005F0070055
:101A3000C0F108000544680707D0502080F31188E2
:101A4000BFF34F8FBFF36F8FFEE72DB370688542F2
:101A500034D82248103001460C6801E020460C467C
:101A60006168A94202D221680029F7D131688C420D
:101A700024D007682168016060680837411B10297D
:101A80000FD96019420708D0502080F31188BFF3A6
:101A90004F8FBFF36F8FFEE710E041606560FFF787
:101AA000EDFD61687068401A7060B268904200D2C3
:101AB000B060F06801430020C4E9000100F05CFE62
:101AC000780707D0502080F31188BFF34F8FBFF302
:101AD0006F8FFEE73846BDE8F081000070000020FF
:101AE00010B5031F4FF080741C601B1F21F0010113
:101AF0001960191F024B0B60143940380A6010BD81
:101B000051190008094D4FF4FA74002201212846AA
:101B1000FEF79EFD2046FFF72DFB012211462846C9
:101B2000FEF796FD2046FFF725FBEEE70008014093
:101B3000094D4FF4FA74012202212846FEF788FD70
:101B40002046FFF717FB002202212846FEF780FD02
:101B50002046FFF70FFBEEE700080140D0E9013215
:101B600001699A60D0E901235A604A68824201D132
:101B700082684A60002202610868401E08600868A6
:101B800070470000034B036003F15C000860802095
:101B900010607047B00B0020044B036003F15C0041
:101BA00008604FF480701060704700000C0E002039
:101BB00000F108014FF0FF32C0E90112C16001617C
:101BC00000210160704700210161704730B50B684A
:101BD0005A1C02D000F1080202E0026904E0224629
:101BE000546825689D42FAD953684B6099608A60B1
:101BF000516008610168491C016030BD42684A605B
:101C000093688B6093685960916008610168491C12
:101C100001607047502080F31188BFF34F8FBFF3EE
:101C20006F8F0A494868401C486001280CD1084859
:101C3000006810F0FF0F07D0502080F31188BFF329
:101C40004F8FBFF36F8FFEE77047000088000020C2
:101C500004ED00E00849486828B1401E486001D101
:101C600080F311887047502080F31188BFF34F8FA5
:101C7000BFF36F8FFEE700008800002070B50028DA
:101C800027D0144DA0F108046168E868014207D12B
:101C9000502080F31188BFF34F8FBFF36F8FFEE7A3
:101CA00022683AB1502080F31188BFF34F8FBFF301
:101CB0006F8FFEE78143616000F02CF9606869680E
:101CC000084468602046FFF7D9FCBDE8704000F08A
:101CD00053BD70BD700000204FF0E0200021016175
:101CE000816105494FF47A720968B1FBF2F1491E2E
:101CF00041610721016170471800002010B5FEF70F
:101D00008BFA114910280ED300F1E02090F8F0036F
:101D10000A78904207D2502080F31188BFF34F8F8A
:101D2000BFF36F8FFEE709480068896800F4E06040
:101D3000884207D9502080F31188BFF34F8FBFF33B
:101D40006F8FFEE710BD0000880000200CED00E062
:101D500010B5084B002200BF53F832401CB1521C92
:101D6000082AF9D310BD43F8321003EBC2014860D2
:101D700010BD00009405002070B515460E460446BF
:101D8000FFF748FF94F944100020491C01D184F862
:101D9000440094F94510491C01D184F84500FFF72F
:101DA00059FFA06B28B92A46314604F1240000F0FF
:101DB00051F82046BDE87040FFF7F0BD10B50200B5
:101DC00014D00F48806B38B1502080F31188BFF3D6
:101DD0004F8FBFF36F8FFEE700F09CF80021104695
:101DE000FFF770FA00F0C8FC002807D105494FF052
:101DF00080500860BFF34F8FBFF36F8F10BD00009E
:101E00001C00002004ED00E002498A6A0260496972
:101E1000416070471C000020014901204862704762
:101E20001C00002010B50C4650B109490968183152
:101E3000FFF7CCFE2046BDE810400121FFF742BA73
:101E4000502080F31188BFF34F8FBFF36F8FFEE7F1
:101E50001C00002070B514460D4668B10A49096897
:101E60001831FFF7CBFE0CB14FF0FF352146284665
:101E7000BDE87040FFF726BA502080F31188BFF309
:101E80004F8FBFF36F8FFEE71C00002030B587B087
:101E90000024039405AA04A903A80494FFF772FE82
:101EA000DDE903010094CDE90110002315A11748D5
:101EB000059A00F046FB164D002868631FD000F01D
:101EC000BDFC012809D0401C19D1502080F3118895
:101ED000BFF34F8FBFF36F8FFEE7502080F3118861
:101EE000BFF34F8FBFF36F8F4FF0FF302863012098
:101EF000E8616C6107B0BDE8304000F045B807B05C
:101F000030BD000049444C45000000005D1500084C
:101F10001C0000200248816B491C8163704700004F
:101F20001C000020164810B5816B11B101214162DF
:101F300010BD002141628169124A01E0B9B1491E18
:101F400001EB810352F82330002BF7D001EB810322
:101F500002EB830202F1080453685B685360A342FA
:101F600001D15B685360DA680260816110BD502066
:101F700080F31188BFF34F8FBFF36F8FFEE7000030
:101F80001C000020D40500201CB5264908780190CB
:101F9000FF20087008788DF800009DF800009DF87B
:101FA000002000F0F000904207D0502080F311880C
:101FB000BFF34F8FBFF36F8FFEE79DF800001A4B02
:101FC00000F0500018700720986005E09DF8002090
:101FD00052008DF80020401E9DF800201206F5D416
:101FE0009860032807D0502080F31188BFF34F8FEB
:101FF000BFF36F8FFEE74FF4407098600198087050
:102000000A48016841F470010160016841F07041C3
:102010000160FFF761FE00205860FEF7C7F800205E
:102020001CBD000000E400E08800002020ED00E07E
:1020300038B5049D18B153B1CAB181B120E0502028
:1020400080F31188BFF34F8FBFF36F8FFEE75020EF
:1020500080F31188BFF34F8FBFF36F8FFEE75020DF
:1020600080F31188BFF34F8FBFF36F8FFEE739B155
:10207000502080F31188BFF34F8FBFF36F8FFEE7BF
:1020800050241C46012384F846302B460094FFF769
:1020900095FA204638BD000070B50D46040025D0E5
:1020A000FFF7B8FDD4E90F20216802FB0011616041
:1020B0000021A1632168A1600A46D4E90F01401EF6
:1020C00000FB0121E16021464FF0FF3001F8440F91
:1020D000487004F110008DB1FFF76AFD04F124008F
:1020E000FFF766FDFFF7B6FD012070BD502080F3BD
:1020F0001188BFF34F8FBFF36F8FFEE7216900296F
:10210000F0D000F001FB0028ECD004494FF08050E3
:102110000860BFF34F8FBFF36F8FE3E704ED00E07C
:102120002DE9FF4782B01D468A464FF000080400A3
:1021300003D0BAF1000F08D011E0502080F31188CD
:10214000BFF34F8FBFF36F8FFEE7206C38B1502085
:1021500080F31188BFF34F8FBFF36F8FFEE7022D1F
:102160000AD1E06B012807D0502080F31188BFF31B
:102170004F8FBFF36F8FFEE700F00EFA3F4F4FF027
:1021800000094FF0805648B9049838B1502080F3C8
:102190001188BFF34F8FBFF36F8FFEE7FFF73AFD54
:1021A000A06BE16B884207D3022D05D00498D0B113
:1021B000B8F1000F1AD01EE02A4651462046FFF71C
:1021C00056F9616A19B104F1240000F09DFA20B1BA
:1021D0003E60BFF34F8FBFF36F8FFFF73BFD0120D2
:1021E00006B0BDE8F087FFF735FD22E06846FFF74F
:1021F0000BFE4FF00108FFF72DFDFFF78BFEFFF7F9
:1022000009FD94F94400401C01D184F8449094F9EC
:102210004500401C01D184F84590FFF71BFD04A93F
:10222000684600F027F930B12046FFF7B7FB00F011
:10223000A3FA0020D4E7FFF7EDFCA06BE16B884226
:1022400013D1FFF707FD04F110000499FFF7EAFD31
:102250002046FFF7A3FB00F08FFA00289ED13E60D6
:10226000BFF34F8FBFF36F8F98E7FFF7F3FC204664
:10227000FFF794FB00F080FA90E7000004ED00E027
:102280002DE9F0471F4690468946040003D0B9F176
:10229000000F08D011E0502080F31188BFF34F8F5A
:1022A000BFF36F8FFEE7206C38B1502080F31188A8
:1022B000BFF34F8FBFF36F8FFEE7022F0AD1E06BA2
:1022C000012807D0502080F31188BFF34F8FBFF350
:1022D0006F8FFEE7FFF712FD5020EFF3118680F3BA
:1022E0001188BFF34F8FBFF36F8FA06BE16B8842F4
:1022F00006D3022F04D0002086F31188BDE8F087B2
:1023000094F945503A4649462046FFF7B0F8681C14
:1023100004D06D1C84F845500120EDE7606A002868
:10232000FAD004F1240000F0EFF90028F4D0B8F15D
:10233000000FF1D00121C8F80010EDE72DE9F747B3
:10234000002683B08A46040003D0BAF1000F08D0FB
:1023500011E0502080F31188BFF34F8FBFF36F8FD0
:10236000FEE7206C38B1502080F31188BFF34F8F07
:10237000BFF36F8FFEE700F00FF9DFF8F4804FF046
:1023800000094FF0805748B9059838B1502080F3C4
:102390001188BFF34F8FBFF36F8FFEE7FFF73AFC53
:1023A000A56BC5B151462046FFF74EF86D1EA563DB
:1023B000206950B104F1100000F0A6F928B1C8F866
:1023C0000070BFF34F8FBFF36F8FFFF743FC012007
:1023D00006B0BDE8F087059808B11EB106E0FFF72A
:1023E00039FC27E06846FFF70FFD0126FFF732FCB6
:1023F000FFF790FDFFF70EFC94F94400401C01D15B
:1024000084F8449094F94500401C01D184F845902B
:10241000FFF720FC05A9684600F02CF800282046AC
:102420000AD0FFF7BBFA00F0A7F92046FFF768F9DA
:102430000028B3D00020CBE7FFF762F990B104F198
:1024400024000599FFF7EEFC2046FFF7A7FA00F0FD
:1024500093F90028A2D1C8F80070BFF34F8FBFF3E3
:102460006F8F9BE72046FFF799FA00F085F995E713
:1024700004ED00E02DE9F0410C46050011D0C4B197
:10248000FFF7C8FB174B5A696E682068911B471C01
:1024900017D02F689B6A9F4219D0964217D8012403
:1024A00010E0502080F31188BFF34F8FBFF36F8F80
:1024B000FEE7502080F31188BFF34F8FBFF36F8F7B
:1024C000FEE70024FFF7C6FB2046BDE8F081884206
:1024D00005D9401A20602846FFF796FCF1E7002056
:1024E0002060DCE71C0000202DE9FF5F8346DDE96A
:1024F0000E87994616468A469000FFF785FA050032
:102500001CD05C20FFF780FA040014D00020256363
:1025100084F85900CDE90240CDE900874B463246A8
:1025200051465846FFF75BF82046FEF7F9FE0120BA
:1025300004B0BDE8F09F2846FFF7A0FB4FF0FF3046
:10254000F6E7F0B585B0DDE90B640A9DA6B1DCB114
:102550005C2700972663022684F85960002604AFA2
:10256000CDE90246CDE90057FFF739F82046FEF7DE
:10257000D7FE049805B0F0BD502080F31188BFF35A
:102580004F8FBFF36F8FFEE7502080F31188BFF3AA
:102590004F8FBFF36F8FFEE70548C16919B1806B9C
:1025A00018B10020704701207047022070470000DA
:1025B0001C00002001484069704700001C000020FA
:1025C0002DE9F0412E4C0027A06B40B1206A401C41
:1025D0002062606A00B101273846BDE8F081666973
:1025E000761C666113D16068006838B1502080F3B2
:1025F0001188BFF34F8FBFF36F8FFEE76068A1684C
:102600006160A060A06A401CA062FFF747F9206BE0
:10261000DFF87080864209D36068006880B1606826
:10262000C068C568686886420DD220632068C06AA9
:1026300000EB800158F821000128CAD90127C8E71A
:102640004FF0FF30F1E7281DFFF788FAA86A18B1AC
:1026500005F11800FFF782FAE86AA169884200D9FB
:10266000A06100EB800108EB8100291DFFF7C6FA8D
:10267000E86A2168C96A8842CED30127CCE7000006
:102680001C000020D405002070B504004FF00001AC
:1026900033D01B4D2868844207D0502080F3118826
:1026A000BFF34F8FBFF36F8FFEE7206D38B1401E31
:1026B0002065E36CE26A9A421FD040B11DE05020D1
:1026C00080F31188BFF34F8FBFF36F8FFEE7201D9C
:1026D000FFF744FAE06CE062C0F13800A061E06A04
:1026E000A969884200D9A861064900EB800001EB86
:1026F0008000211DFFF782FA0121084670BD00000D
:102700001C000020D405002070B5C068C46854B116
:1027100004F118000646FFF721FA144DA86B50B1DA
:102720003146134815E0502080F31188BFF34F8FD6
:10273000BFF36F8FFEE7201DFFF710FAE06AA9696B
:10274000884200D9A8610B4900EB800001EB8000B2
:10275000211DFFF753FAE06A2968C96A884202D945
:102760000120686270BD002070BD00001C000020C8
:102770005C0A0020D40500202DE9F0472C4D0024F0
:102780002746A86B38B1FFF745FAA86B401EA8632F
:10279000A86B40B146E0502080F31188BFF34F8F03
:1027A000BFF36F8FFEE72969224E0120D1B3A6F552
:1027B000916980463068E0B1F068C46804F118009F
:1027C000FFF7CCF9201DFFF7C9F9E06AA969884233
:1027D00000D9A86100EB800109EB8100211DFFF702
:1027E0000DFAE06A2968C96A8842E3D3C5F82480F3
:1027F000E0E70CB1FFF752F82C6A4CB14FEA08063B
:10280000FFF7DEFE00B16E62641EF9D1002028627F
:10281000686A38B10849012738070860BFF34F8F4D
:10282000BFF36F8FFFF716FA3846BDE8F087000058
:102830001C0000205C0A002004ED00E010B586B00A
:10284000FEF7D6FD114CA068B8B1002003900490AB
:1028500005AA04A903A8FFF79FF9DDE903210220D7
:102860008DE8070000230AA10B48059AFFF769FECF
:10287000E06010B106B0012010BD502080F3118837
:10288000BFF34F8FBFF36F8FFEE7000058000020AB
:10289000546D722053766300791900082DE9FF41C9
:1028A0001E46134602000A9D4FF0000016D0144C3D
:1028B000A768002F0FD0CDE900130292062917DA7E
:1028C000FFF76AFE02284FF000030FD0002269468E
:1028D000A068FFF725FC04B0BDE8F081502080F32C
:1028E0001188BFF34F8FBFF36F8FFEE72A46EEE7E5
:1028F0000023324669463846FFF7C2FCEBE700008A
:1029000058000020542900080000000000000000CA
:10291000000000000000000000020000180000009D
:102920000000000000000000010202030405060789
:1029300008090A0B0C0D0E0F10100000000000001B
:10294000000001020304060708090000000001025C
:102950000304000064656661756C745461736B00F8
:1029600080290008000000209400000028010008D1
:10297000142A00089400002034400000440100089C
:102980000000000000000000000000000100000046
:1029900010000000000000000024F400000000000F
:1029A0000000000000000000000000000000000027
:1029B0000000000000000000000000000000000017
:1029C0000000000000000000000000000000000007
:1029D00000000000000000000000000000000000F7
:1029E00000000000000000000000000000000000E7
:1029F00000000000000000000000000000000000D7
:102A0000000000000000000000000000AAAAAAAA1E
:042A100000000000C2
:04000005080000ED02
:00000001FF
